{
  "contractName": "Kittycontract",
  "abi": [
    {
      "inputs": [],
      "stateMutability": "nonpayable",
      "type": "constructor"
    },
    {
      "anonymous": false,
      "inputs": [
        {
          "indexed": true,
          "internalType": "address",
          "name": "owner",
          "type": "address"
        },
        {
          "indexed": true,
          "internalType": "address",
          "name": "approved",
          "type": "address"
        },
        {
          "indexed": true,
          "internalType": "uint256",
          "name": "tokenId",
          "type": "uint256"
        }
      ],
      "name": "Approval",
      "type": "event"
    },
    {
      "anonymous": false,
      "inputs": [
        {
          "indexed": true,
          "internalType": "address",
          "name": "owner",
          "type": "address"
        },
        {
          "indexed": true,
          "internalType": "address",
          "name": "operator",
          "type": "address"
        },
        {
          "indexed": false,
          "internalType": "bool",
          "name": "approved",
          "type": "bool"
        }
      ],
      "name": "ApprovalForAll",
      "type": "event"
    },
    {
      "anonymous": false,
      "inputs": [
        {
          "indexed": false,
          "internalType": "address",
          "name": "owner",
          "type": "address"
        },
        {
          "indexed": false,
          "internalType": "uint256",
          "name": "kittenId",
          "type": "uint256"
        },
        {
          "indexed": false,
          "internalType": "uint256",
          "name": "mumId",
          "type": "uint256"
        },
        {
          "indexed": false,
          "internalType": "uint256",
          "name": "dadId",
          "type": "uint256"
        },
        {
          "indexed": false,
          "internalType": "uint256",
          "name": "genes",
          "type": "uint256"
        }
      ],
      "name": "Birth",
      "type": "event"
    },
    {
      "anonymous": false,
      "inputs": [
        {
          "indexed": true,
          "internalType": "address",
          "name": "from",
          "type": "address"
        },
        {
          "indexed": true,
          "internalType": "address",
          "name": "to",
          "type": "address"
        },
        {
          "indexed": true,
          "internalType": "uint256",
          "name": "tokenId",
          "type": "uint256"
        }
      ],
      "name": "Transfer",
      "type": "event"
    },
    {
      "inputs": [],
      "name": "MAX_AMOUNT_GEN0",
      "outputs": [
        {
          "internalType": "uint256",
          "name": "",
          "type": "uint256"
        }
      ],
      "stateMutability": "view",
      "type": "function",
      "constant": true
    },
    {
      "inputs": [],
      "name": "Name",
      "outputs": [
        {
          "internalType": "string",
          "name": "",
          "type": "string"
        }
      ],
      "stateMutability": "view",
      "type": "function",
      "constant": true
    },
    {
      "inputs": [],
      "name": "Symbol",
      "outputs": [
        {
          "internalType": "string",
          "name": "",
          "type": "string"
        }
      ],
      "stateMutability": "view",
      "type": "function",
      "constant": true
    },
    {
      "inputs": [
        {
          "internalType": "uint256",
          "name": "",
          "type": "uint256"
        }
      ],
      "name": "approveToken",
      "outputs": [
        {
          "internalType": "address",
          "name": "",
          "type": "address"
        }
      ],
      "stateMutability": "view",
      "type": "function",
      "constant": true
    },
    {
      "inputs": [
        {
          "internalType": "uint256",
          "name": "_genes",
          "type": "uint256"
        }
      ],
      "name": "createKittyGen0",
      "outputs": [
        {
          "internalType": "uint256",
          "name": "",
          "type": "uint256"
        }
      ],
      "stateMutability": "nonpayable",
      "type": "function"
    },
    {
      "inputs": [
        {
          "internalType": "uint256",
          "name": "tokenId",
          "type": "uint256"
        }
      ],
      "name": "getKitty",
      "outputs": [
        {
          "components": [
            {
              "internalType": "uint256",
              "name": "genes",
              "type": "uint256"
            },
            {
              "internalType": "uint64",
              "name": "birthTime",
              "type": "uint64"
            },
            {
              "internalType": "uint32",
              "name": "mumId",
              "type": "uint32"
            },
            {
              "internalType": "uint32",
              "name": "dadId",
              "type": "uint32"
            },
            {
              "internalType": "uint16",
              "name": "generation",
              "type": "uint16"
            }
          ],
          "internalType": "struct Kittycontract.Token",
          "name": "",
          "type": "tuple"
        }
      ],
      "stateMutability": "view",
      "type": "function",
      "constant": true
    },
    {
      "inputs": [
        {
          "internalType": "address",
          "name": "owner",
          "type": "address"
        }
      ],
      "name": "balanceOf",
      "outputs": [
        {
          "internalType": "uint256",
          "name": "balance",
          "type": "uint256"
        }
      ],
      "stateMutability": "view",
      "type": "function",
      "constant": true
    },
    {
      "inputs": [],
      "name": "allNFTsPerOwner",
      "outputs": [
        {
          "internalType": "uint256[]",
          "name": "",
          "type": "uint256[]"
        }
      ],
      "stateMutability": "view",
      "type": "function",
      "constant": true
    },
    {
      "inputs": [],
      "name": "totalSupply",
      "outputs": [
        {
          "internalType": "uint256",
          "name": "total",
          "type": "uint256"
        }
      ],
      "stateMutability": "view",
      "type": "function",
      "constant": true
    },
    {
      "inputs": [],
      "name": "name",
      "outputs": [
        {
          "internalType": "string",
          "name": "tokenName",
          "type": "string"
        }
      ],
      "stateMutability": "pure",
      "type": "function",
      "constant": true
    },
    {
      "inputs": [],
      "name": "symbol",
      "outputs": [
        {
          "internalType": "string",
          "name": "tokenSymbol",
          "type": "string"
        }
      ],
      "stateMutability": "pure",
      "type": "function",
      "constant": true
    },
    {
      "inputs": [
        {
          "internalType": "uint256",
          "name": "tokenId",
          "type": "uint256"
        }
      ],
      "name": "ownerOf",
      "outputs": [
        {
          "internalType": "address",
          "name": "owner",
          "type": "address"
        }
      ],
      "stateMutability": "view",
      "type": "function",
      "constant": true
    },
    {
      "inputs": [
        {
          "internalType": "address",
          "name": "to",
          "type": "address"
        },
        {
          "internalType": "uint256",
          "name": "tokenId",
          "type": "uint256"
        }
      ],
      "name": "transfer",
      "outputs": [],
      "stateMutability": "nonpayable",
      "type": "function"
    },
    {
      "inputs": [
        {
          "internalType": "address",
          "name": "_approved",
          "type": "address"
        },
        {
          "internalType": "uint256",
          "name": "_tokenId",
          "type": "uint256"
        }
      ],
      "name": "approve",
      "outputs": [],
      "stateMutability": "nonpayable",
      "type": "function"
    },
    {
      "inputs": [
        {
          "internalType": "uint256",
          "name": "_tokenId",
          "type": "uint256"
        }
      ],
      "name": "getApproved",
      "outputs": [
        {
          "internalType": "address",
          "name": "",
          "type": "address"
        }
      ],
      "stateMutability": "view",
      "type": "function",
      "constant": true
    },
    {
      "inputs": [
        {
          "internalType": "address",
          "name": "_operator",
          "type": "address"
        },
        {
          "internalType": "bool",
          "name": "_approved",
          "type": "bool"
        }
      ],
      "name": "setApprovalForAll",
      "outputs": [],
      "stateMutability": "nonpayable",
      "type": "function"
    },
    {
      "inputs": [
        {
          "internalType": "address",
          "name": "_owner",
          "type": "address"
        },
        {
          "internalType": "address",
          "name": "_operator",
          "type": "address"
        }
      ],
      "name": "isApprovedForAll",
      "outputs": [
        {
          "internalType": "bool",
          "name": "",
          "type": "bool"
        }
      ],
      "stateMutability": "view",
      "type": "function",
      "constant": true
    },
    {
      "inputs": [
        {
          "internalType": "address",
          "name": "_from",
          "type": "address"
        },
        {
          "internalType": "address",
          "name": "_to",
          "type": "address"
        },
        {
          "internalType": "uint256",
          "name": "_tokenId",
          "type": "uint256"
        }
      ],
      "name": "transferFrom",
      "outputs": [],
      "stateMutability": "nonpayable",
      "type": "function"
    },
    {
      "inputs": [
        {
          "internalType": "address",
          "name": "_from",
          "type": "address"
        },
        {
          "internalType": "address",
          "name": "_to",
          "type": "address"
        },
        {
          "internalType": "uint256",
          "name": "_tokenId",
          "type": "uint256"
        }
      ],
      "name": "safeTransferFrom",
      "outputs": [],
      "stateMutability": "nonpayable",
      "type": "function"
    },
    {
      "inputs": [
        {
          "internalType": "address",
          "name": "_from",
          "type": "address"
        },
        {
          "internalType": "address",
          "name": "_to",
          "type": "address"
        },
        {
          "internalType": "uint256",
          "name": "_tokenId",
          "type": "uint256"
        },
        {
          "internalType": "bytes",
          "name": "_data",
          "type": "bytes"
        }
      ],
      "name": "safeTransferFrom",
      "outputs": [],
      "stateMutability": "nonpayable",
      "type": "function"
    },
    {
      "inputs": [
        {
          "internalType": "address",
          "name": "_from",
          "type": "address"
        },
        {
          "internalType": "address",
          "name": "_to",
          "type": "address"
        },
        {
          "internalType": "uint256",
          "name": "_tokenId",
          "type": "uint256"
        },
        {
          "internalType": "bytes",
          "name": "_data",
          "type": "bytes"
        }
      ],
      "name": "_safeTransfer",
      "outputs": [],
      "stateMutability": "nonpayable",
      "type": "function"
    },
    {
      "inputs": [
        {
          "internalType": "bytes4",
          "name": "_interfaceId",
          "type": "bytes4"
        }
      ],
      "name": "supportsInterface",
      "outputs": [
        {
          "internalType": "bool",
          "name": "",
          "type": "bool"
        }
      ],
      "stateMutability": "pure",
      "type": "function",
      "constant": true
    },
    {
      "inputs": [
        {
          "internalType": "uint256",
          "name": "_mumId",
          "type": "uint256"
        },
        {
          "internalType": "uint256",
          "name": "_dadId",
          "type": "uint256"
        }
      ],
      "name": "breed",
      "outputs": [],
      "stateMutability": "nonpayable",
      "type": "function"
    },
    {
      "inputs": [
        {
          "internalType": "uint256",
          "name": "_mumDNA",
          "type": "uint256"
        },
        {
          "internalType": "uint256",
          "name": "_dadDNA",
          "type": "uint256"
        }
      ],
      "name": "_mixDNA",
      "outputs": [
        {
          "internalType": "uint256",
          "name": "",
          "type": "uint256"
        }
      ],
      "stateMutability": "pure",
      "type": "function",
      "constant": true
    }
  ],
  "bytecode": "0x608060405234801561001057600080fd5b50336000806101000a81548173ffffffffffffffffffffffffffffffffffffffff021916908373ffffffffffffffffffffffffffffffffffffffff1602179055506130fd806100606000396000f3fe608060405234801561001057600080fd5b50600436106101585760003560e01c806370a08231116100c3578063b03b13051161007c578063b03b1305146103d9578063b88d4fde146103f7578063d5a776ca14610413578063d9ecad7b14610443578063e985e9c51461045f578063e98b7f4d1461048f57610158565b806370a082311461031757806373953028146103475780638052474d1461036557806395d89b4114610383578063a22cb465146103a1578063a9059cbb146103bd57610158565b806323b872dd1161011557806323b872dd1461024557806324b6b8c0146102615780633045aaf31461027d5780633ac9fc111461029b57806342842e0e146102cb5780636352211e146102e757610158565b806301ffc9a71461015d57806306fdde031461018d578063081812fc146101ab578063095ea7b3146101db57806312da13bc146101f757806318160ddd14610227575b600080fd5b61017760048036038101906101729190612017565b6104bf565b604051610184919061205f565b60405180910390f35b61019561055f565b6040516101a29190612113565b60405180910390f35b6101c560048036038101906101c0919061216b565b61059c565b6040516101d291906121d9565b60405180910390f35b6101f560048036038101906101f09190612220565b610620565b005b610211600480360381019061020c9190612260565b610793565b60405161021e91906122af565b60405180910390f35b61022f6107e7565b60405161023c91906122af565b60405180910390f35b61025f600480360381019061025a91906122ca565b6107f4565b005b61027b60048036038101906102769190612452565b610ac8565b005b610285610aee565b6040516102929190612113565b60405180910390f35b6102b560048036038101906102b0919061216b565b610b27565b6040516102c291906121d9565b60405180910390f35b6102e560048036038101906102e091906122ca565b610b5a565b005b61030160048036038101906102fc919061216b565b610e3e565b60405161030e91906121d9565b60405180910390f35b610331600480360381019061032c91906124d5565b610e7b565b60405161033e91906122af565b60405180910390f35b61034f610ec4565b60405161035c91906125c0565b60405180910390f35b61036d610f59565b60405161037a9190612113565b60405180910390f35b61038b610f92565b6040516103989190612113565b60405180910390f35b6103bb60048036038101906103b6919061260e565b610fcf565b005b6103d760048036038101906103d29190612220565b6110b1565b005b6103e161119e565b6040516103ee91906122af565b60405180910390f35b610411600480360381019061040c91906126ae565b6111a4565b005b61042d6004803603810190610428919061216b565b6114bf565b60405161043a91906122af565b60405180910390f35b61045d60048036038101906104589190612260565b6115c4565b005b61047960048036038101906104749190612736565b61180f565b604051610486919061205f565b60405180910390f35b6104a960048036038101906104a4919061216b565b6118a3565b6040516104b6919061283d565b60405180910390f35b60006380ac58cd60e01b7bffffffffffffffffffffffffffffffffffffffffffffffffffffffff1916827bffffffffffffffffffffffffffffffffffffffffffffffffffffffff1916148061055857506301ffc9a760e01b7bffffffffffffffffffffffffffffffffffffffffffffffffffffffff1916827bffffffffffffffffffffffffffffffffffffffffffffffffffffffff1916145b9050919050565b60606040518060400160405280600c81526020017f48656c6c6f4b6974746965730000000000000000000000000000000000000000815250905090565b600060028054905082106105e5576040517f08c379a00000000000000000000000000000000000000000000000000000000081526004016105dc906128a4565b60405180910390fd5b6006600083815260200190815260200160002060009054906101000a900473ffffffffffffffffffffffffffffffffffffffff169050919050565b3373ffffffffffffffffffffffffffffffffffffffff166003600083815260200190815260200160002060009054906101000a900473ffffffffffffffffffffffffffffffffffffffff1673ffffffffffffffffffffffffffffffffffffffff1614806106eb57503373ffffffffffffffffffffffffffffffffffffffff166006600083815260200190815260200160002060009054906101000a900473ffffffffffffffffffffffffffffffffffffffff1673ffffffffffffffffffffffffffffffffffffffff16145b61072a576040517f08c379a000000000000000000000000000000000000000000000000000000000815260040161072190612936565b60405180910390fd5b6107348282611987565b808273ffffffffffffffffffffffffffffffffffffffff163373ffffffffffffffffffffffffffffffffffffffff167f8c5be1e5ebec7d5bd14f71427d1e84f3dd0314c0f7b2291e5b200ac8c7c3b92560405160405180910390a45050565b6000806305f5e100836107a691906129b4565b905060006305f5e100856107ba91906129e5565b90506000816305f5e100846107cf9190612a16565b6107d99190612a70565b905080935050505092915050565b6000600280549050905090565b3373ffffffffffffffffffffffffffffffffffffffff166003600083815260200190815260200160002060009054906101000a900473ffffffffffffffffffffffffffffffffffffffff1673ffffffffffffffffffffffffffffffffffffffff1614806108bf57503373ffffffffffffffffffffffffffffffffffffffff166006600083815260200190815260200160002060009054906101000a900473ffffffffffffffffffffffffffffffffffffffff1673ffffffffffffffffffffffffffffffffffffffff16145b80610957575060011515600760008573ffffffffffffffffffffffffffffffffffffffff1673ffffffffffffffffffffffffffffffffffffffff16815260200190815260200160002060003373ffffffffffffffffffffffffffffffffffffffff1673ffffffffffffffffffffffffffffffffffffffff16815260200190815260200160002060009054906101000a900460ff161515145b610996576040517f08c379a000000000000000000000000000000000000000000000000000000000815260040161098d90612b38565b60405180910390fd5b8273ffffffffffffffffffffffffffffffffffffffff166003600083815260200190815260200160002060009054906101000a900473ffffffffffffffffffffffffffffffffffffffff1673ffffffffffffffffffffffffffffffffffffffff1614610a37576040517f08c379a0000000000000000000000000000000000000000000000000000000008152600401610a2e90612ba4565b60405180910390fd5b6002805490508110610a7e576040517f08c379a0000000000000000000000000000000000000000000000000000000008152600401610a75906128a4565b60405180910390fd5b600073ffffffffffffffffffffffffffffffffffffffff168273ffffffffffffffffffffffffffffffffffffffff161415610ab857600080fd5b610ac38383836119dd565b505050565b610ad38484846119dd565b610adf84848484611ba4565b610ae857600080fd5b50505050565b6040518060400160405280600481526020017f484b54530000000000000000000000000000000000000000000000000000000081525081565b60066020528060005260406000206000915054906101000a900473ffffffffffffffffffffffffffffffffffffffff1681565b3373ffffffffffffffffffffffffffffffffffffffff166003600083815260200190815260200160002060009054906101000a900473ffffffffffffffffffffffffffffffffffffffff1673ffffffffffffffffffffffffffffffffffffffff161480610c2557503373ffffffffffffffffffffffffffffffffffffffff166006600083815260200190815260200160002060009054906101000a900473ffffffffffffffffffffffffffffffffffffffff1673ffffffffffffffffffffffffffffffffffffffff16145b80610cbd575060011515600760008573ffffffffffffffffffffffffffffffffffffffff1673ffffffffffffffffffffffffffffffffffffffff16815260200190815260200160002060003373ffffffffffffffffffffffffffffffffffffffff1673ffffffffffffffffffffffffffffffffffffffff16815260200190815260200160002060009054906101000a900460ff161515145b610cfc576040517f08c379a0000000000000000000000000000000000000000000000000000000008152600401610cf390612b38565b60405180910390fd5b8273ffffffffffffffffffffffffffffffffffffffff166003600083815260200190815260200160002060009054906101000a900473ffffffffffffffffffffffffffffffffffffffff1673ffffffffffffffffffffffffffffffffffffffff1614610d9d576040517f08c379a0000000000000000000000000000000000000000000000000000000008152600401610d9490612ba4565b60405180910390fd5b6002805490508110610de4576040517f08c379a0000000000000000000000000000000000000000000000000000000008152600401610ddb906128a4565b60405180910390fd5b600073ffffffffffffffffffffffffffffffffffffffff168273ffffffffffffffffffffffffffffffffffffffff161415610e1e57600080fd5b610e3983838360405180602001604052806000815250610ac8565b505050565b60006003600083815260200190815260200160002060009054906101000a900473ffffffffffffffffffffffffffffffffffffffff169050919050565b6000600460008373ffffffffffffffffffffffffffffffffffffffff1673ffffffffffffffffffffffffffffffffffffffff168152602001908152602001600020549050919050565b6060600560003373ffffffffffffffffffffffffffffffffffffffff1673ffffffffffffffffffffffffffffffffffffffff168152602001908152602001600020805480602002602001604051908101604052809291908181526020018280548015610f4f57602002820191906000526020600020905b815481526020019060010190808311610f3b575b5050505050905090565b6040518060400160405280600c81526020017f48656c6c6f4b697474696573000000000000000000000000000000000000000081525081565b60606040518060400160405280600481526020017f484b545300000000000000000000000000000000000000000000000000000000815250905090565b8173ffffffffffffffffffffffffffffffffffffffff163373ffffffffffffffffffffffffffffffffffffffff16141561103e576040517f08c379a000000000000000000000000000000000000000000000000000000000815260040161103590612c10565b60405180910390fd5b6110488282611cbe565b8173ffffffffffffffffffffffffffffffffffffffff163373ffffffffffffffffffffffffffffffffffffffff167f17307eab39ab6107e8899845ad3d59bd9653f200f220920489ca2b5937696c31836040516110a5919061205f565b60405180910390a35050565b600073ffffffffffffffffffffffffffffffffffffffff168273ffffffffffffffffffffffffffffffffffffffff1614156110eb57600080fd5b3073ffffffffffffffffffffffffffffffffffffffff168273ffffffffffffffffffffffffffffffffffffffff16141561112457600080fd5b3373ffffffffffffffffffffffffffffffffffffffff166003600083815260200190815260200160002060009054906101000a900473ffffffffffffffffffffffffffffffffffffffff1673ffffffffffffffffffffffffffffffffffffffff161461118f57600080fd5b61119a3383836119dd565b5050565b6103e881565b3373ffffffffffffffffffffffffffffffffffffffff166003600085815260200190815260200160002060009054906101000a900473ffffffffffffffffffffffffffffffffffffffff1673ffffffffffffffffffffffffffffffffffffffff16148061126f57503373ffffffffffffffffffffffffffffffffffffffff166006600085815260200190815260200160002060009054906101000a900473ffffffffffffffffffffffffffffffffffffffff1673ffffffffffffffffffffffffffffffffffffffff16145b80611307575060011515600760008773ffffffffffffffffffffffffffffffffffffffff1673ffffffffffffffffffffffffffffffffffffffff16815260200190815260200160002060003373ffffffffffffffffffffffffffffffffffffffff1673ffffffffffffffffffffffffffffffffffffffff16815260200190815260200160002060009054906101000a900460ff161515145b611346576040517f08c379a000000000000000000000000000000000000000000000000000000000815260040161133d90612b38565b60405180910390fd5b8473ffffffffffffffffffffffffffffffffffffffff166003600085815260200190815260200160002060009054906101000a900473ffffffffffffffffffffffffffffffffffffffff1673ffffffffffffffffffffffffffffffffffffffff16146113e7576040517f08c379a00000000000000000000000000000000000000000000000000000000081526004016113de90612ba4565b60405180910390fd5b600280549050831061142e576040517f08c379a0000000000000000000000000000000000000000000000000000000008152600401611425906128a4565b60405180910390fd5b600073ffffffffffffffffffffffffffffffffffffffff168473ffffffffffffffffffffffffffffffffffffffff16141561146857600080fd5b6114b885858585858080601f016020809104026020016040519081016040528093929190818152602001838380828437600081840152601f19601f82011690508083019250505050505050610ac8565b5050505050565b60008060009054906101000a900473ffffffffffffffffffffffffffffffffffffffff1673ffffffffffffffffffffffffffffffffffffffff163373ffffffffffffffffffffffffffffffffffffffff1614611550576040517f08c379a000000000000000000000000000000000000000000000000000000000815260040161154790612c7c565b60405180910390fd5b6103e860015410611596576040517f08c379a000000000000000000000000000000000000000000000000000000000815260040161158d90612d0e565b60405180910390fd5b600160008154809291906115a990612d2e565b91905055506115bd60008060008533611d56565b9050919050565b3373ffffffffffffffffffffffffffffffffffffffff166003600084815260200190815260200160002060009054906101000a900473ffffffffffffffffffffffffffffffffffffffff1673ffffffffffffffffffffffffffffffffffffffff1614611665576040517f08c379a000000000000000000000000000000000000000000000000000000000815260040161165c90612de9565b60405180910390fd5b3373ffffffffffffffffffffffffffffffffffffffff166003600083815260200190815260200160002060009054906101000a900473ffffffffffffffffffffffffffffffffffffffff1673ffffffffffffffffffffffffffffffffffffffff1614611706576040517f08c379a00000000000000000000000000000000000000000000000000000000081526004016116fd90612e7b565b60405180910390fd5b60006002838154811061171c5761171b612e9b565b5b906000526020600020906002020160000154905060006002838154811061174657611745612e9b565b5b906000526020600020906002020160000154905060006117668383610793565b905060006001600280878154811061178157611780612e9b565b5b906000526020600020906002020160010160109054906101000a900461ffff16600289815481106117b5576117b4612e9b565b5b906000526020600020906002020160010160109054906101000a900461ffff166117df9190612eca565b6117e99190612f02565b6117f39190612eca565b61ffff1690506118068686838533611d56565b50505050505050565b6000600760008473ffffffffffffffffffffffffffffffffffffffff1673ffffffffffffffffffffffffffffffffffffffff16815260200190815260200160002060008373ffffffffffffffffffffffffffffffffffffffff1673ffffffffffffffffffffffffffffffffffffffff16815260200190815260200160002060009054906101000a900460ff16905092915050565b6118ab611f62565b600282815481106118bf576118be612e9b565b5b90600052602060002090600202016040518060a0016040529081600082015481526020016001820160009054906101000a900467ffffffffffffffff1667ffffffffffffffff1667ffffffffffffffff1681526020016001820160089054906101000a900463ffffffff1663ffffffff1663ffffffff16815260200160018201600c9054906101000a900463ffffffff1663ffffffff1663ffffffff1681526020016001820160109054906101000a900461ffff1661ffff1661ffff16815250509050919050565b816006600083815260200190815260200160002060006101000a81548173ffffffffffffffffffffffffffffffffffffffff021916908373ffffffffffffffffffffffffffffffffffffffff1602179055505050565b600460008373ffffffffffffffffffffffffffffffffffffffff1673ffffffffffffffffffffffffffffffffffffffff1681526020019081526020016000206000815480929190611a2d90612d2e565b9190505550816003600083815260200190815260200160002060006101000a81548173ffffffffffffffffffffffffffffffffffffffff021916908373ffffffffffffffffffffffffffffffffffffffff160217905550600073ffffffffffffffffffffffffffffffffffffffff168373ffffffffffffffffffffffffffffffffffffffff1614611b4457600460008473ffffffffffffffffffffffffffffffffffffffff1673ffffffffffffffffffffffffffffffffffffffff1681526020019081526020016000206000815480929190611b0890612f33565b91905055506006600082815260200190815260200160002060006101000a81549073ffffffffffffffffffffffffffffffffffffffff02191690555b808273ffffffffffffffffffffffffffffffffffffffff168473ffffffffffffffffffffffffffffffffffffffff167fddf252ad1be2c89b69c2b068fc378daa952ba7f163c4a11628f55a4df523b3ef60405160405180910390a4505050565b6000611baf84611f49565b611bbc5760019050611cb6565b60008473ffffffffffffffffffffffffffffffffffffffff1663150b7a02338887876040518563ffffffff1660e01b8152600401611bfd9493929190612fb2565b602060405180830381600087803b158015611c1757600080fd5b505af1158015611c2b573d6000803e3d6000fd5b505050506040513d601f19601f82011682018060405250810190611c4f9190613013565b90507f150b7a023d4804d13e8c85fb27262cb750cf6ba9f9dd3bb30d90f482ceeb4b1f7bffffffffffffffffffffffffffffffffffffffffffffffffffffffff1916817bffffffffffffffffffffffffffffffffffffffffffffffffffffffff1916149150505b949350505050565b80600760003373ffffffffffffffffffffffffffffffffffffffff1673ffffffffffffffffffffffffffffffffffffffff16815260200190815260200160002060008473ffffffffffffffffffffffffffffffffffffffff1673ffffffffffffffffffffffffffffffffffffffff16815260200190815260200160002060006101000a81548160ff0219169083151502179055505050565b6000806040518060a001604052808581526020014267ffffffffffffffff1681526020018863ffffffff1681526020018763ffffffff1681526020018661ffff16815250905060028190806001815401808255809150506001900390600052602060002090600202016000909190919091506000820151816000015560208201518160010160006101000a81548167ffffffffffffffff021916908367ffffffffffffffff16021790555060408201518160010160086101000a81548163ffffffff021916908363ffffffff160217905550606082015181600101600c6101000a81548163ffffffff021916908363ffffffff16021790555060808201518160010160106101000a81548161ffff021916908361ffff160217905550505060006001600280549050611e889190613040565b9050600560003373ffffffffffffffffffffffffffffffffffffffff1673ffffffffffffffffffffffffffffffffffffffff1681526020019081526020016000208190806001815401808255809150506001900390600052602060002001600090919091909150557f0a5311bd2a6608f08a180df2ee7c5946819a649b204b554bb8e39825b2c50ad584828a8a89604051611f27959493929190613074565b60405180910390a1611f3b600085836119dd565b809250505095945050505050565b600080823b905060008163ffffffff1611915050919050565b6040518060a0016040528060008152602001600067ffffffffffffffff168152602001600063ffffffff168152602001600063ffffffff168152602001600061ffff1681525090565b6000604051905090565b600080fd5b600080fd5b60007fffffffff0000000000000000000000000000000000000000000000000000000082169050919050565b611ff481611fbf565b8114611fff57600080fd5b50565b60008135905061201181611feb565b92915050565b60006020828403121561202d5761202c611fb5565b5b600061203b84828501612002565b91505092915050565b60008115159050919050565b61205981612044565b82525050565b60006020820190506120746000830184612050565b92915050565b600081519050919050565b600082825260208201905092915050565b60005b838110156120b4578082015181840152602081019050612099565b838111156120c3576000848401525b50505050565b6000601f19601f8301169050919050565b60006120e58261207a565b6120ef8185612085565b93506120ff818560208601612096565b612108816120c9565b840191505092915050565b6000602082019050818103600083015261212d81846120da565b905092915050565b6000819050919050565b61214881612135565b811461215357600080fd5b50565b6000813590506121658161213f565b92915050565b60006020828403121561218157612180611fb5565b5b600061218f84828501612156565b91505092915050565b600073ffffffffffffffffffffffffffffffffffffffff82169050919050565b60006121c382612198565b9050919050565b6121d3816121b8565b82525050565b60006020820190506121ee60008301846121ca565b92915050565b6121fd816121b8565b811461220857600080fd5b50565b60008135905061221a816121f4565b92915050565b6000806040838503121561223757612236611fb5565b5b60006122458582860161220b565b925050602061225685828601612156565b9150509250929050565b6000806040838503121561227757612276611fb5565b5b600061228585828601612156565b925050602061229685828601612156565b9150509250929050565b6122a981612135565b82525050565b60006020820190506122c460008301846122a0565b92915050565b6000806000606084860312156122e3576122e2611fb5565b5b60006122f18682870161220b565b93505060206123028682870161220b565b925050604061231386828701612156565b9150509250925092565b600080fd5b600080fd5b7f4e487b7100000000000000000000000000000000000000000000000000000000600052604160045260246000fd5b61235f826120c9565b810181811067ffffffffffffffff8211171561237e5761237d612327565b5b80604052505050565b6000612391611fab565b905061239d8282612356565b919050565b600067ffffffffffffffff8211156123bd576123bc612327565b5b6123c6826120c9565b9050602081019050919050565b82818337600083830152505050565b60006123f56123f0846123a2565b612387565b90508281526020810184848401111561241157612410612322565b5b61241c8482856123d3565b509392505050565b600082601f8301126124395761243861231d565b5b81356124498482602086016123e2565b91505092915050565b6000806000806080858703121561246c5761246b611fb5565b5b600061247a8782880161220b565b945050602061248b8782880161220b565b935050604061249c87828801612156565b925050606085013567ffffffffffffffff8111156124bd576124bc611fba565b5b6124c987828801612424565b91505092959194509250565b6000602082840312156124eb576124ea611fb5565b5b60006124f98482850161220b565b91505092915050565b600081519050919050565b600082825260208201905092915050565b6000819050602082019050919050565b61253781612135565b82525050565b6000612549838361252e565b60208301905092915050565b6000602082019050919050565b600061256d82612502565b612577818561250d565b93506125828361251e565b8060005b838110156125b357815161259a888261253d565b97506125a583612555565b925050600181019050612586565b5085935050505092915050565b600060208201905081810360008301526125da8184612562565b905092915050565b6125eb81612044565b81146125f657600080fd5b50565b600081359050612608816125e2565b92915050565b6000806040838503121561262557612624611fb5565b5b60006126338582860161220b565b9250506020612644858286016125f9565b9150509250929050565b600080fd5b600080fd5b60008083601f84011261266e5761266d61231d565b5b8235905067ffffffffffffffff81111561268b5761268a61264e565b5b6020830191508360018202830111156126a7576126a6612653565b5b9250929050565b6000806000806000608086880312156126ca576126c9611fb5565b5b60006126d88882890161220b565b95505060206126e98882890161220b565b94505060406126fa88828901612156565b935050606086013567ffffffffffffffff81111561271b5761271a611fba565b5b61272788828901612658565b92509250509295509295909350565b6000806040838503121561274d5761274c611fb5565b5b600061275b8582860161220b565b925050602061276c8582860161220b565b9150509250929050565b600067ffffffffffffffff82169050919050565b61279381612776565b82525050565b600063ffffffff82169050919050565b6127b281612799565b82525050565b600061ffff82169050919050565b6127cf816127b8565b82525050565b60a0820160008201516127eb600085018261252e565b5060208201516127fe602085018261278a565b50604082015161281160408501826127a9565b50606082015161282460608501826127a9565b50608082015161283760808501826127c6565b50505050565b600060a08201905061285260008301846127d5565b92915050565b7f546f6b656e20646f6573206e6f74206578697374000000000000000000000000600082015250565b600061288e601483612085565b915061289982612858565b602082019050919050565b600060208201905081810360008301526128bd81612881565b9050919050565b7f4e656974686572206f776e6572206f6620746f6b656e206e6f7220617070726f60008201527f7665640000000000000000000000000000000000000000000000000000000000602082015250565b6000612920602383612085565b915061292b826128c4565b604082019050919050565b6000602082019050818103600083015261294f81612913565b9050919050565b7f4e487b7100000000000000000000000000000000000000000000000000000000600052601260045260246000fd5b7f4e487b7100000000000000000000000000000000000000000000000000000000600052601160045260246000fd5b60006129bf82612135565b91506129ca83612135565b9250826129da576129d9612956565b5b828204905092915050565b60006129f082612135565b91506129fb83612135565b925082612a0b57612a0a612956565b5b828206905092915050565b6000612a2182612135565b9150612a2c83612135565b9250817fffffffffffffffffffffffffffffffffffffffffffffffffffffffffffffffff0483118215151615612a6557612a64612985565b5b828202905092915050565b6000612a7b82612135565b9150612a8683612135565b9250827fffffffffffffffffffffffffffffffffffffffffffffffffffffffffffffffff03821115612abb57612aba612985565b5b828201905092915050565b7f6d73672e73656e646572206973206e6f74206f776e65722c206e6f722061707060008201527f726f7665642c206e6f72206f70657261746f7200000000000000000000000000602082015250565b6000612b22603383612085565b9150612b2d82612ac6565b604082019050919050565b60006020820190508181036000830152612b5181612b15565b9050919050565b7f5f66726f6d2061646472657373206973206e6f7420746865206f776e65720000600082015250565b6000612b8e601e83612085565b9150612b9982612b58565b602082019050919050565b60006020820190508181036000830152612bbd81612b81565b9050919050565b7f4f776e657220616e64206f70657261746f7220617265207468652073616d6500600082015250565b6000612bfa601f83612085565b9150612c0582612bc4565b602082019050919050565b60006020820190508181036000830152612c2981612bed565b9050919050565b7f43616c6c6572206973206e6f74206f776e657200000000000000000000000000600082015250565b6000612c66601383612085565b9150612c7182612c30565b602082019050919050565b60006020820190508181036000830152612c9581612c59565b9050919050565b7f4d6178696d756d20616d6f756e74206f662047656e65726174696f6e2030206360008201527f6174732072656163686564000000000000000000000000000000000000000000602082015250565b6000612cf8602b83612085565b9150612d0382612c9c565b604082019050919050565b60006020820190508181036000830152612d2781612ceb565b9050919050565b6000612d3982612135565b91507fffffffffffffffffffffffffffffffffffffffffffffffffffffffffffffffff821415612d6c57612d6b612985565b5b600182019050919050565b7f4d756d2063617420646f6573206e6f742062656c6f6e6720746f206d73672e7360008201527f656e646572000000000000000000000000000000000000000000000000000000602082015250565b6000612dd3602583612085565b9150612dde82612d77565b604082019050919050565b60006020820190508181036000830152612e0281612dc6565b9050919050565b7f4461642063617420646f6573206e6f742062656c6f6e6720746f206d73672e7360008201527f656e646572000000000000000000000000000000000000000000000000000000602082015250565b6000612e65602583612085565b9150612e7082612e09565b604082019050919050565b60006020820190508181036000830152612e9481612e58565b9050919050565b7f4e487b7100000000000000000000000000000000000000000000000000000000600052603260045260246000fd5b6000612ed5826127b8565b9150612ee0836127b8565b92508261ffff03821115612ef757612ef6612985565b5b828201905092915050565b6000612f0d826127b8565b9150612f18836127b8565b925082612f2857612f27612956565b5b828204905092915050565b6000612f3e82612135565b91506000821415612f5257612f51612985565b5b600182039050919050565b600081519050919050565b600082825260208201905092915050565b6000612f8482612f5d565b612f8e8185612f68565b9350612f9e818560208601612096565b612fa7816120c9565b840191505092915050565b6000608082019050612fc760008301876121ca565b612fd460208301866121ca565b612fe160408301856122a0565b8181036060830152612ff38184612f79565b905095945050505050565b60008151905061300d81611feb565b92915050565b60006020828403121561302957613028611fb5565b5b600061303784828501612ffe565b91505092915050565b600061304b82612135565b915061305683612135565b92508282101561306957613068612985565b5b828203905092915050565b600060a08201905061308960008301886121ca565b61309660208301876122a0565b6130a360408301866122a0565b6130b060608301856122a0565b6130bd60808301846122a0565b969550505050505056fea264697066735822122031e22cd7f47631a2d4f1030c65da02c5f38b84479b3eee83b6c57e7bf69efad464736f6c63430008090033",
  "immutableReferences": {},
  "source": "// SPDX-License-Identifier: UNLICENSED\r\npragma solidity ^0.8.9;\r\n\r\nimport \"./IERC721.sol\";\r\nimport \"./IERC721Receiver.sol\";\r\nimport \"./Ownable.sol\";\r\n\r\n//Contracts are considered abstract if at least ONE of their functions is not implemented\r\n\r\ncontract Kittycontract is IERC721, Ownable {\r\n\r\n    constructor() IERC721() {}\r\n\r\n    string public constant Name = \"HelloKitties\";\r\n    string public constant Symbol =\"HKTS\";\r\n    uint public constant MAX_AMOUNT_GEN0 = 1000;\r\n    uint gen0Counter;\r\n    bytes4 internal constant MAGIC_NUMBER = bytes4(keccak256(\"onERC721Received(address,address,uint256,bytes)\"));\r\n    bytes4 private constant INTERFACE_ID_721 = 0x80ac58cd;\r\n    bytes4 private constant INTERFACE_ID_165 = 0x01ffc9a7;\r\n\r\n    event Birth(address owner, uint256 kittenId, uint256 mumId, uint256 dadId, uint256 genes);\r\n\r\n    struct Token {\r\n        uint256 genes;\r\n        uint64 birthTime;\r\n        uint32 mumId;\r\n        uint32 dadId;\r\n        uint16 generation;\r\n    }\r\n    Token[] allTokens;\r\n\r\n    mapping(uint256 => address) ownership;\r\n    mapping(address => uint) tokenAmount;\r\n    mapping(address => uint[]) allTokensPerOwner;  //My own addition\r\n    mapping(uint => address) public approveToken;\r\n    mapping(address => mapping(address => bool)) private operatorApproval;\r\n    \r\n    function createKittyGen0(uint256 _genes) public onlyOwner returns(uint) {\r\n\r\n        require(gen0Counter < MAX_AMOUNT_GEN0, \"Maximum amount of Generation 0 cats reached\");\r\n        gen0Counter ++;\r\n\r\n        return _createKitty(0, 0, 0, _genes, msg.sender);\r\n    }\r\n\r\n    function _createKitty(\r\n        uint256 _mumId,\r\n        uint256 _dadId,\r\n        uint256 _generation,\r\n        uint256 _genes,\r\n        address _owner\r\n    ) private returns(uint256 tokenId) {\r\n\r\n        Token memory _newKitty = Token({\r\n            mumId: uint32(_mumId),\r\n            dadId: uint32(_dadId),\r\n            generation: uint16(_generation),\r\n            genes: _genes,\r\n            birthTime: uint64(block.timestamp)\r\n        });\r\n\r\n        allTokens.push(_newKitty);\r\n        uint256 newKittyId = allTokens.length - 1;\r\n        allTokensPerOwner[msg.sender].push(newKittyId);\r\n\r\n        emit Birth(_owner, newKittyId, _mumId, _dadId, _genes);\r\n\r\n        _transfer(address(0), _owner, newKittyId);\r\n\r\n        return newKittyId;\r\n    }\r\n\r\n    function getKitty(uint tokenId) public view returns(Token memory) {\r\n        return allTokens[tokenId];\r\n    }\r\n\r\n    function balanceOf(address owner) external view returns (uint256 balance) {\r\n        return tokenAmount[owner];\r\n    }\r\n\r\n    //My own addition\r\n    function allNFTsPerOwner() public view returns (uint[] memory) {\r\n        return allTokensPerOwner[msg.sender];\r\n    }\r\n\r\n    function totalSupply() external view returns (uint256 total) {\r\n        return allTokens.length;\r\n    }\r\n\r\n    function name() external pure returns (string memory tokenName) {\r\n        return Name;\r\n    }\r\n\r\n    function symbol() external pure returns (string memory tokenSymbol) {\r\n        return Symbol;\r\n    }\r\n\r\n    function ownerOf(uint256 tokenId) external view returns (address owner) {\r\n        return ownership[tokenId];\r\n    }\r\n\r\n    function transfer(address to, uint256 tokenId) external {\r\n        require(to != address(0));\r\n        require(to != address(this));\r\n        require(ownership[tokenId] == msg.sender);\r\n        //require(_owns(msg.sender, tokenId));\r\n\r\n        _transfer(msg.sender, to, tokenId);\r\n    }\r\n\r\n    function _transfer(address _from, address _to, uint tokenId) internal {\r\n        tokenAmount[_to] ++;\r\n        ownership[tokenId] = _to;\r\n\r\n        if(_from != address(0)) {\r\n            tokenAmount[_from] --;\r\n            delete approveToken[tokenId];\r\n        }\r\n\r\n        emit Transfer(_from, _to, tokenId);\r\n    }\r\n\r\n    function approve(address _approved, uint256 _tokenId) external {\r\n        //require(owns(msg.sender, _tokenId), \"Not owner\");\r\n        require(ownership[_tokenId] == msg.sender || approveToken[_tokenId] == msg.sender, \"Neither owner of token nor approved\");\r\n        _approve(_approved, _tokenId);\r\n        emit Approval(msg.sender, _approved, _tokenId);\r\n    }\r\n\r\n    function _approve(address _approved, uint256 _tokenId) internal {\r\n        approveToken[_tokenId] = _approved;\r\n    }\r\n\r\n    function getApproved(uint256 _tokenId) external view returns (address) {\r\n        require(_tokenId < allTokens.length, \"Token does not exist\");\r\n        return approveToken[_tokenId];\r\n    }\r\n\r\n    function setApprovalForAll(address _operator, bool _approved) external {\r\n        require(msg.sender != _operator, \"Owner and operator are the same\");\r\n        _setApprovalForAll(_operator, _approved);\r\n        emit ApprovalForAll(msg.sender, _operator, _approved);\r\n    }\r\n\r\n    function _setApprovalForAll(address _operator, bool _approved) internal {\r\n        operatorApproval[msg.sender][_operator] = _approved;\r\n    }\r\n\r\n    function isApprovedForAll(address _owner, address _operator) external view returns (bool) {\r\n        return operatorApproval[_owner][_operator];\r\n    }\r\n\r\n    /*function owns(address claimant, uint tokenId) internal view returns(bool) {\r\n        return ownership[tokenId] == claimant;\r\n    }*/\r\n\r\n   \r\n    function transferFrom(address _from, address _to, uint256 _tokenId) external {\r\n\r\n        require(ownership[_tokenId] == msg.sender || approveToken[_tokenId] == msg.sender \r\n            || operatorApproval[_from][msg.sender] == true, \"msg.sender is not owner, nor approved, nor operator\");\r\n        require(ownership[_tokenId] == _from, \"_from address is not the owner\");\r\n        require(_tokenId < allTokens.length, \"Token does not exist\");\r\n        require(_to != address(0));\r\n\r\n        _transfer(_from, _to, _tokenId);\r\n    }\r\n\r\n    function safeTransferFrom(address _from, address _to, uint256 _tokenId) public {\r\n        require(ownership[_tokenId] == msg.sender || approveToken[_tokenId] == msg.sender \r\n            || operatorApproval[_from][msg.sender] == true, \"msg.sender is not owner, nor approved, nor operator\");\r\n        require(ownership[_tokenId] == _from, \"_from address is not the owner\");\r\n        require(_tokenId < allTokens.length, \"Token does not exist\");\r\n        require(_to != address(0));\r\n\r\n        _safeTransfer(_from, _to, _tokenId, \"\");   \r\n    }\r\n\r\n    function safeTransferFrom(address _from, address _to, uint256 _tokenId, bytes calldata _data) public {\r\n        //Can also put all these checks into a function that returns true (bool)\r\n        require(ownership[_tokenId] == msg.sender || approveToken[_tokenId] == msg.sender \r\n            || operatorApproval[_from][msg.sender] == true, \"msg.sender is not owner, nor approved, nor operator\");\r\n        require(ownership[_tokenId] == _from, \"_from address is not the owner\");\r\n        require(_tokenId < allTokens.length, \"Token does not exist\");\r\n        require(_to != address(0));\r\n\r\n        _safeTransfer(_from, _to, _tokenId, _data);\r\n    }\r\n\r\n    function _safeTransfer(address _from, address _to, uint _tokenId, bytes memory _data) public {\r\n        _transfer(_from, _to, _tokenId);\r\n        \r\n        require( _checkERC721Support(_from, _to, _tokenId, _data) );\r\n    }\r\n\r\n    function _checkERC721Support(address _from, address _to, uint _tokenId, bytes memory _data) internal returns (bool) {\r\n        //Check if _to is not a contract. If it isn't, then we're dealing with a wallet.\r\n        //The return value will be true and the transfer will go through.\r\n        if( !_isContract(_to) ) {\r\n            return true;\r\n        }\r\n\r\n        //Here we call the the onERC721Received() function in the contract/interface at address _to \r\n        bytes4 returnData = IERC721Receiver(_to).onERC721Received(msg.sender, _from, _tokenId, _data);\r\n        //And then we check the return value\r\n        return returnData == MAGIC_NUMBER;\r\n    }\r\n\r\n    function _isContract(address _to) view internal returns(bool) {\r\n        uint32 size;\r\n        assembly {\r\n            size := extcodesize(_to)    //external code size: checks the code size. \r\n        }                               //If code size = 0 -> wallet; if code size > 0 -> contract\r\n        return size > 0;                //If the size is > 0, then the return value will be true, which means we're dealing with a \r\n    }                                   //contract and the the if statement in _checkERC721Support will not be true\r\n \r\n    function supportsInterface(bytes4 _interfaceId) external pure returns(bool) {\r\n        return ( _interfaceId == INTERFACE_ID_721 || _interfaceId == INTERFACE_ID_165);\r\n    }\r\n\r\n    function breed(uint _mumId, uint _dadId) public {\r\n        //Check ownership of mum and dad\r\n        require(ownership[_mumId] == msg.sender, \"Mum cat does not belong to msg.sender\");\r\n        require(ownership[_dadId] == msg.sender, \"Dad cat does not belong to msg.sender\");\r\n\r\n        //You got the DNA\r\n        uint _mumDNA = allTokens[_mumId].genes;\r\n        uint _dadDNA = allTokens[_dadId].genes;\r\n        uint newDNA = _mixDNA(_mumDNA, _dadDNA);\r\n\r\n        //Figure out the generation of new cat\r\n        //I took the average of the parents and added one\r\n        uint newKittyGen = ((allTokens[_mumId].generation + allTokens[_dadId].generation) / 2) + 1;\r\n\r\n        //Create a new cat with the new properties, transfer it to the msg.sender\r\n        _createKitty(_mumId, _dadId, newKittyGen, newDNA, msg.sender);\r\n     \r\n    }\r\n\r\n    function _mixDNA(uint _mumDNA, uint _dadDNA) public pure returns(uint) {\r\n\r\n        //10 + 20 = 1020    this is what we want to achieve when we \"add\" the first and second half\r\n        //10 * 100 = 1000\r\n        //1000 + 20 = 1020\r\n\r\n        uint firstHalf = _dadDNA / 100000000;\r\n        uint secondHalf = _mumDNA % 100000000;\r\n        uint newDNA = firstHalf * 100000000 + secondHalf;\r\n        return newDNA;\r\n    }  \r\n}  \r\n\r\n",
  "sourcePath": "C:\\Users\\Emmerich\\Documents\\Academy\\HelloKitties\\MyHelloKitties\\contracts\\Kittycontract.sol",
  "compiler": {
    "name": "solc",
    "version": "0.8.9+commit.e5eed63a.Emscripten.clang"
  },
  "schemaVersion": "3.4.3",
  "updatedAt": "2021-12-07T07:30:24.354Z",
  "networkType": "ethereum",
  "devdoc": {
    "kind": "dev",
    "methods": {
      "approve(address,uint256)": {
        "details": "The zero address indicates there is no approved address.  Throws unless `msg.sender` is the current NFT owner, or an authorized  operator of the current owner.",
        "params": {
          "_approved": "The new approved NFT controller",
          "_tokenId": "The NFT to approve"
        }
      },
      "balanceOf(address)": {
        "details": "Returns the number of tokens in ``owner``'s account."
      },
      "getApproved(uint256)": {
        "details": "Throws if `_tokenId` is not a valid NFT.",
        "params": {
          "_tokenId": "The NFT to find the approved address for"
        },
        "returns": {
          "_0": "The approved address for this NFT, or the zero address if there is none"
        }
      },
      "isApprovedForAll(address,address)": {
        "params": {
          "_operator": "The address that acts on behalf of the owner",
          "_owner": "The address that owns the NFTs"
        },
        "returns": {
          "_0": "True if `_operator` is an approved operator for `_owner`, false otherwise"
        }
      },
      "ownerOf(uint256)": {
        "details": "Returns the owner of the `tokenId` token. Requirements: - `tokenId` must exist."
      },
      "setApprovalForAll(address,bool)": {
        "details": "Emits the ApprovalForAll event. The contract MUST allow  multiple operators per owner.",
        "params": {
          "_approved": "True if the operator is approved, false to revoke approval",
          "_operator": "Address to add to the set of authorized operators"
        }
      },
      "transferFrom(address,address,uint256)": {
        "details": "Throws unless `msg.sender` is the current owner, an authorized  operator, or the approved address for this NFT. Throws if `_from` is  not the current owner. Throws if `_to` is the zero address. Throws if  `_tokenId` is not a valid NFT.",
        "params": {
          "_from": "The current owner of the NFT",
          "_to": "The new owner",
          "_tokenId": "The NFT to transfer"
        }
      }
    },
    "version": 1
  },
  "userdoc": {
    "kind": "user",
    "methods": {
      "approve(address,uint256)": {
        "notice": "Change or reaffirm the approved address for an NFT"
      },
      "getApproved(uint256)": {
        "notice": "Get the approved address for a single NFT"
      },
      "isApprovedForAll(address,address)": {
        "notice": "Query if an address is an authorized operator for another address"
      },
      "setApprovalForAll(address,bool)": {
        "notice": "Enable or disable approval for a third party (\"operator\") to manage  all of `msg.sender`'s assets"
      },
      "transferFrom(address,address,uint256)": {
        "notice": "Transfer ownership of an NFT -- THE CALLER IS RESPONSIBLE  TO CONFIRM THAT `_to` IS CAPABLE OF RECEIVING NFTS OR ELSE  THEY MAY BE PERMANENTLY LOST"
      }
    },
    "version": 1
  }
}