{
  "contractName": "Kittycontract",
  "abi": [
    {
      "inputs": [],
      "stateMutability": "nonpayable",
      "type": "constructor"
    },
    {
      "anonymous": false,
      "inputs": [
        {
          "indexed": true,
          "internalType": "address",
          "name": "owner",
          "type": "address"
        },
        {
          "indexed": true,
          "internalType": "address",
          "name": "approved",
          "type": "address"
        },
        {
          "indexed": true,
          "internalType": "uint256",
          "name": "tokenId",
          "type": "uint256"
        }
      ],
      "name": "Approval",
      "type": "event"
    },
    {
      "anonymous": false,
      "inputs": [
        {
          "indexed": false,
          "internalType": "address",
          "name": "owner",
          "type": "address"
        },
        {
          "indexed": false,
          "internalType": "uint256",
          "name": "kittenId",
          "type": "uint256"
        },
        {
          "indexed": false,
          "internalType": "uint256",
          "name": "mumId",
          "type": "uint256"
        },
        {
          "indexed": false,
          "internalType": "uint256",
          "name": "dadId",
          "type": "uint256"
        },
        {
          "indexed": false,
          "internalType": "uint256",
          "name": "genes",
          "type": "uint256"
        }
      ],
      "name": "Birth",
      "type": "event"
    },
    {
      "anonymous": false,
      "inputs": [
        {
          "indexed": true,
          "internalType": "address",
          "name": "from",
          "type": "address"
        },
        {
          "indexed": true,
          "internalType": "address",
          "name": "to",
          "type": "address"
        },
        {
          "indexed": true,
          "internalType": "uint256",
          "name": "tokenId",
          "type": "uint256"
        }
      ],
      "name": "Transfer",
      "type": "event"
    },
    {
      "inputs": [],
      "name": "Name",
      "outputs": [
        {
          "internalType": "string",
          "name": "",
          "type": "string"
        }
      ],
      "stateMutability": "view",
      "type": "function"
    },
    {
      "inputs": [],
      "name": "Symbol",
      "outputs": [
        {
          "internalType": "string",
          "name": "",
          "type": "string"
        }
      ],
      "stateMutability": "view",
      "type": "function"
    },
    {
      "inputs": [
        {
          "internalType": "address",
          "name": "owner",
          "type": "address"
        }
      ],
      "name": "balanceOf",
      "outputs": [
        {
          "internalType": "uint256",
          "name": "balance",
          "type": "uint256"
        }
      ],
      "stateMutability": "view",
      "type": "function"
    },
    {
      "inputs": [],
      "name": "allNFTsPerOwner",
      "outputs": [
        {
          "components": [
            {
              "internalType": "uint256",
              "name": "genes",
              "type": "uint256"
            },
            {
              "internalType": "uint64",
              "name": "birthTime",
              "type": "uint64"
            },
            {
              "internalType": "uint32",
              "name": "mumId",
              "type": "uint32"
            },
            {
              "internalType": "uint32",
              "name": "dadId",
              "type": "uint32"
            },
            {
              "internalType": "uint16",
              "name": "generation",
              "type": "uint16"
            }
          ],
          "internalType": "struct Kittycontract.Token[]",
          "name": "",
          "type": "tuple[]"
        }
      ],
      "stateMutability": "view",
      "type": "function"
    },
    {
      "inputs": [],
      "name": "totalSupply",
      "outputs": [
        {
          "internalType": "uint256",
          "name": "total",
          "type": "uint256"
        }
      ],
      "stateMutability": "view",
      "type": "function"
    },
    {
      "inputs": [],
      "name": "name",
      "outputs": [
        {
          "internalType": "string",
          "name": "tokenName",
          "type": "string"
        }
      ],
      "stateMutability": "pure",
      "type": "function"
    },
    {
      "inputs": [],
      "name": "symbol",
      "outputs": [
        {
          "internalType": "string",
          "name": "tokenSymbol",
          "type": "string"
        }
      ],
      "stateMutability": "pure",
      "type": "function"
    },
    {
      "inputs": [
        {
          "internalType": "uint256",
          "name": "tokenId",
          "type": "uint256"
        }
      ],
      "name": "ownerOf",
      "outputs": [
        {
          "internalType": "address",
          "name": "owner",
          "type": "address"
        }
      ],
      "stateMutability": "view",
      "type": "function"
    },
    {
      "inputs": [
        {
          "internalType": "address",
          "name": "to",
          "type": "address"
        },
        {
          "internalType": "uint256",
          "name": "tokenId",
          "type": "uint256"
        }
      ],
      "name": "transfer",
      "outputs": [],
      "stateMutability": "nonpayable",
      "type": "function"
    }
  ],
  "bytecode": "0x608060405234801561001057600080fd5b50610bc9806100206000396000f3fe608060405234801561001057600080fd5b50600436106100935760003560e01c806370a082311161006657806370a082311461012257806373953028146101525780638052474d1461017057806395d89b411461018e578063a9059cbb146101ac57610093565b806306fdde031461009857806318160ddd146100b65780633045aaf3146100d45780636352211e146100f2575b600080fd5b6100a06101c8565b6040516100ad91906107a1565b60405180910390f35b6100be610205565b6040516100cb91906107dc565b60405180910390f35b6100dc610211565b6040516100e991906107a1565b60405180910390f35b61010c60048036038101906101079190610828565b61024a565b6040516101199190610896565b60405180910390f35b61013c600480360381019061013791906108dd565b610287565b60405161014991906107dc565b60405180910390f35b61015a6102d0565b6040516101679190610a8f565b60405180910390f35b610178610414565b60405161018591906107a1565b60405180910390f35b61019661044d565b6040516101a391906107a1565b60405180910390f35b6101c660048036038101906101c19190610ab1565b61048a565b005b60606040518060400160405280600c81526020017f48656c6c6f4b6974746965730000000000000000000000000000000000000000815250905090565b60008080549050905090565b6040518060400160405280600481526020017f484b54530000000000000000000000000000000000000000000000000000000081525081565b60006001600083815260200190815260200160002060009054906101000a900473ffffffffffffffffffffffffffffffffffffffff169050919050565b6000600260008373ffffffffffffffffffffffffffffffffffffffff1673ffffffffffffffffffffffffffffffffffffffff168152602001908152602001600020549050919050565b6060600360003373ffffffffffffffffffffffffffffffffffffffff1673ffffffffffffffffffffffffffffffffffffffff168152602001908152602001600020805480602002602001604051908101604052809291908181526020016000905b8282101561040b57838290600052602060002090600202016040518060a0016040529081600082015481526020016001820160009054906101000a900467ffffffffffffffff1667ffffffffffffffff1667ffffffffffffffff1681526020016001820160089054906101000a900463ffffffff1663ffffffff1663ffffffff16815260200160018201600c9054906101000a900463ffffffff1663ffffffff1663ffffffff1681526020016001820160109054906101000a900461ffff1661ffff1661ffff168152505081526020019060010190610331565b50505050905090565b6040518060400160405280600c81526020017f48656c6c6f4b697474696573000000000000000000000000000000000000000081525081565b60606040518060400160405280600481526020017f484b545300000000000000000000000000000000000000000000000000000000815250905090565b600073ffffffffffffffffffffffffffffffffffffffff168273ffffffffffffffffffffffffffffffffffffffff1614156104c457600080fd5b3073ffffffffffffffffffffffffffffffffffffffff168273ffffffffffffffffffffffffffffffffffffffff1614156104fd57600080fd5b3373ffffffffffffffffffffffffffffffffffffffff166001600083815260200190815260200160002060009054906101000a900473ffffffffffffffffffffffffffffffffffffffff1673ffffffffffffffffffffffffffffffffffffffff161461056857600080fd5b610573338383610577565b5050565b600260008373ffffffffffffffffffffffffffffffffffffffff1673ffffffffffffffffffffffffffffffffffffffff16815260200190815260200160002060008154809291906105c790610b20565b9190505550816001600083815260200190815260200160002060006101000a81548173ffffffffffffffffffffffffffffffffffffffff021916908373ffffffffffffffffffffffffffffffffffffffff160217905550600073ffffffffffffffffffffffffffffffffffffffff168373ffffffffffffffffffffffffffffffffffffffff16146106a857600260008473ffffffffffffffffffffffffffffffffffffffff1673ffffffffffffffffffffffffffffffffffffffff16815260200190815260200160002060008154809291906106a290610b69565b91905055505b808273ffffffffffffffffffffffffffffffffffffffff168473ffffffffffffffffffffffffffffffffffffffff167fddf252ad1be2c89b69c2b068fc378daa952ba7f163c4a11628f55a4df523b3ef60405160405180910390a4505050565b600081519050919050565b600082825260208201905092915050565b60005b83811015610742578082015181840152602081019050610727565b83811115610751576000848401525b50505050565b6000601f19601f8301169050919050565b600061077382610708565b61077d8185610713565b935061078d818560208601610724565b61079681610757565b840191505092915050565b600060208201905081810360008301526107bb8184610768565b905092915050565b6000819050919050565b6107d6816107c3565b82525050565b60006020820190506107f160008301846107cd565b92915050565b600080fd5b610805816107c3565b811461081057600080fd5b50565b600081359050610822816107fc565b92915050565b60006020828403121561083e5761083d6107f7565b5b600061084c84828501610813565b91505092915050565b600073ffffffffffffffffffffffffffffffffffffffff82169050919050565b600061088082610855565b9050919050565b61089081610875565b82525050565b60006020820190506108ab6000830184610887565b92915050565b6108ba81610875565b81146108c557600080fd5b50565b6000813590506108d7816108b1565b92915050565b6000602082840312156108f3576108f26107f7565b5b6000610901848285016108c8565b91505092915050565b600081519050919050565b600082825260208201905092915050565b6000819050602082019050919050565b61093f816107c3565b82525050565b600067ffffffffffffffff82169050919050565b61096281610945565b82525050565b600063ffffffff82169050919050565b61098181610968565b82525050565b600061ffff82169050919050565b61099e81610987565b82525050565b60a0820160008201516109ba6000850182610936565b5060208201516109cd6020850182610959565b5060408201516109e06040850182610978565b5060608201516109f36060850182610978565b506080820151610a066080850182610995565b50505050565b6000610a1883836109a4565b60a08301905092915050565b6000602082019050919050565b6000610a3c8261090a565b610a468185610915565b9350610a5183610926565b8060005b83811015610a82578151610a698882610a0c565b9750610a7483610a24565b925050600181019050610a55565b5085935050505092915050565b60006020820190508181036000830152610aa98184610a31565b905092915050565b60008060408385031215610ac857610ac76107f7565b5b6000610ad6858286016108c8565b9250506020610ae785828601610813565b9150509250929050565b7f4e487b7100000000000000000000000000000000000000000000000000000000600052601160045260246000fd5b6000610b2b826107c3565b91507fffffffffffffffffffffffffffffffffffffffffffffffffffffffffffffffff821415610b5e57610b5d610af1565b5b600182019050919050565b6000610b74826107c3565b91506000821415610b8857610b87610af1565b5b60018203905091905056fea2646970667358221220963320de3ab47b87908d1a9794a3c177c25bb44e6f37d4c65a2203dbe1b9c57864736f6c63430008090033",
  "immutableReferences": {},
  "source": "// SPDX-License-Identifier: UNLICENSED\r\npragma solidity ^0.8.9;\r\n\r\nimport \"./IERC721.sol\";\r\n\r\n//Contracts are considered abstract if at least ONE of their functions is not implemented\r\n\r\ncontract Kittycontract is IERC721 {\r\n\r\n    constructor() IERC721() {}\r\n\r\n    string public constant Name = \"HelloKitties\";\r\n    string public constant Symbol =\"HKTS\";\r\n\r\n    event Birth(address owner, uint256 kittenId, uint256 mumId, uint256 dadId, uint256 genes);\r\n\r\n    struct Token {\r\n        uint256 genes;\r\n        uint64 birthTime;\r\n        uint32 mumId;\r\n        uint32 dadId;\r\n        uint16 generation;\r\n    }\r\n    Token[] allTokens;\r\n\r\n    mapping(uint256 => address) ownership;\r\n    mapping(address => uint) tokenAmount;\r\n    mapping(address => Token[]) allTokensPerOwner;  //My own addition\r\n\r\n    function _createKitty(\r\n        uint256 _mumId,\r\n        uint256 _dadId,\r\n        uint256 _generation,\r\n        uint256 _genes,\r\n        address _owner\r\n    ) private returns(uint256 tokenId) {\r\n\r\n        Token memory _newKitty = Token({\r\n            mumId: uint32(_mumId),\r\n            dadId: uint32(_dadId),\r\n            generation: uint16(_generation),\r\n            genes: _genes,\r\n            birthTime: uint64(block.timestamp)\r\n        });\r\n\r\n        allTokens.push(_newKitty);\r\n        uint256 newKittyId = allTokens.length - 1;\r\n\r\n        emit Birth(_owner, newKittyId, _mumId, _dadId, _genes);\r\n\r\n        _transfer(address(0), _owner, newKittyId);\r\n\r\n        return newKittyId;\r\n    }\r\n\r\n    function balanceOf(address owner) external view returns (uint256 balance) {\r\n        return tokenAmount[owner];\r\n    }\r\n\r\n    //My own addition\r\n    function allNFTsPerOwner() public view returns (Token[] memory) {\r\n        return allTokensPerOwner[msg.sender];\r\n    }\r\n\r\n    function totalSupply() external view returns (uint256 total) {\r\n        return allTokens.length;\r\n    }\r\n\r\n    function name() external pure returns (string memory tokenName) {\r\n        return Name;\r\n    }\r\n\r\n    function symbol() external pure returns (string memory tokenSymbol) {\r\n        return Symbol;\r\n    }\r\n\r\n    function ownerOf(uint256 tokenId) external view returns (address owner) {\r\n        return ownership[tokenId];\r\n    }\r\n\r\n    function transfer(address to, uint256 tokenId) external {\r\n        require(to != address(0));\r\n        require(to != address(this));\r\n        require(ownership[tokenId] == msg.sender);\r\n        //require(_owns(msg.sender, tokenId));\r\n\r\n        _transfer(msg.sender, to, tokenId);\r\n    }\r\n\r\n    function _transfer(address _from, address _to, uint tokenId) internal {\r\n        tokenAmount[_to] ++;\r\n        ownership[tokenId] = _to;\r\n\r\n        if(_from != address(0)) {\r\n            tokenAmount[_from] --;\r\n        }\r\n\r\n        emit Transfer(_from, _to, tokenId);\r\n    }\r\n\r\n    /*\r\n    function _owns(address claimant, uint tokenId) internal view returns(bool) {\r\n        return ownership[tokenId] == claimant;\r\n    }\r\n    */\r\n}",
  "sourcePath": "C:\\Users\\Emmerich\\Documents\\Academy\\HelloKittites\\MyHelloKitties\\contracts\\Kittycontract.sol",
  "compiler": {
    "name": "solc",
    "version": "0.8.9+commit.e5eed63a.Emscripten.clang"
  },
  "schemaVersion": "3.4.3",
  "updatedAt": "2021-10-15T06:54:08.513Z",
  "devdoc": {
    "kind": "dev",
    "methods": {
      "balanceOf(address)": {
        "details": "Returns the number of tokens in ``owner``'s account."
      },
      "ownerOf(uint256)": {
        "details": "Returns the owner of the `tokenId` token. Requirements: - `tokenId` must exist."
      }
    },
    "version": 1
  },
  "userdoc": {
    "kind": "user",
    "methods": {},
    "version": 1
  }
}