{
  "contractName": "Kittycontract",
  "abi": [
    {
      "inputs": [],
      "stateMutability": "nonpayable",
      "type": "constructor"
    },
    {
      "anonymous": false,
      "inputs": [
        {
          "indexed": true,
          "internalType": "address",
          "name": "owner",
          "type": "address"
        },
        {
          "indexed": true,
          "internalType": "address",
          "name": "approved",
          "type": "address"
        },
        {
          "indexed": true,
          "internalType": "uint256",
          "name": "tokenId",
          "type": "uint256"
        }
      ],
      "name": "Approval",
      "type": "event"
    },
    {
      "anonymous": false,
      "inputs": [
        {
          "indexed": false,
          "internalType": "address",
          "name": "owner",
          "type": "address"
        },
        {
          "indexed": false,
          "internalType": "uint256",
          "name": "kittenId",
          "type": "uint256"
        },
        {
          "indexed": false,
          "internalType": "uint256",
          "name": "mumId",
          "type": "uint256"
        },
        {
          "indexed": false,
          "internalType": "uint256",
          "name": "dadId",
          "type": "uint256"
        },
        {
          "indexed": false,
          "internalType": "uint256",
          "name": "genes",
          "type": "uint256"
        }
      ],
      "name": "Birth",
      "type": "event"
    },
    {
      "anonymous": false,
      "inputs": [
        {
          "indexed": true,
          "internalType": "address",
          "name": "from",
          "type": "address"
        },
        {
          "indexed": true,
          "internalType": "address",
          "name": "to",
          "type": "address"
        },
        {
          "indexed": true,
          "internalType": "uint256",
          "name": "tokenId",
          "type": "uint256"
        }
      ],
      "name": "Transfer",
      "type": "event"
    },
    {
      "inputs": [],
      "name": "MAX_AMOUNT_GEN0",
      "outputs": [
        {
          "internalType": "uint256",
          "name": "",
          "type": "uint256"
        }
      ],
      "stateMutability": "view",
      "type": "function",
      "constant": true
    },
    {
      "inputs": [],
      "name": "Name",
      "outputs": [
        {
          "internalType": "string",
          "name": "",
          "type": "string"
        }
      ],
      "stateMutability": "view",
      "type": "function",
      "constant": true
    },
    {
      "inputs": [],
      "name": "Symbol",
      "outputs": [
        {
          "internalType": "string",
          "name": "",
          "type": "string"
        }
      ],
      "stateMutability": "view",
      "type": "function",
      "constant": true
    },
    {
      "inputs": [
        {
          "internalType": "uint256",
          "name": "_genes",
          "type": "uint256"
        }
      ],
      "name": "createKittyGen0",
      "outputs": [
        {
          "internalType": "uint256",
          "name": "",
          "type": "uint256"
        }
      ],
      "stateMutability": "nonpayable",
      "type": "function"
    },
    {
      "inputs": [
        {
          "internalType": "uint256",
          "name": "tokenId",
          "type": "uint256"
        }
      ],
      "name": "getKitty",
      "outputs": [
        {
          "components": [
            {
              "internalType": "uint256",
              "name": "genes",
              "type": "uint256"
            },
            {
              "internalType": "uint64",
              "name": "birthTime",
              "type": "uint64"
            },
            {
              "internalType": "uint32",
              "name": "mumId",
              "type": "uint32"
            },
            {
              "internalType": "uint32",
              "name": "dadId",
              "type": "uint32"
            },
            {
              "internalType": "uint16",
              "name": "generation",
              "type": "uint16"
            }
          ],
          "internalType": "struct Kittycontract.Token",
          "name": "",
          "type": "tuple"
        }
      ],
      "stateMutability": "view",
      "type": "function",
      "constant": true
    },
    {
      "inputs": [
        {
          "internalType": "address",
          "name": "owner",
          "type": "address"
        }
      ],
      "name": "balanceOf",
      "outputs": [
        {
          "internalType": "uint256",
          "name": "balance",
          "type": "uint256"
        }
      ],
      "stateMutability": "view",
      "type": "function",
      "constant": true
    },
    {
      "inputs": [],
      "name": "allNFTsPerOwner",
      "outputs": [
        {
          "components": [
            {
              "internalType": "uint256",
              "name": "genes",
              "type": "uint256"
            },
            {
              "internalType": "uint64",
              "name": "birthTime",
              "type": "uint64"
            },
            {
              "internalType": "uint32",
              "name": "mumId",
              "type": "uint32"
            },
            {
              "internalType": "uint32",
              "name": "dadId",
              "type": "uint32"
            },
            {
              "internalType": "uint16",
              "name": "generation",
              "type": "uint16"
            }
          ],
          "internalType": "struct Kittycontract.Token[]",
          "name": "",
          "type": "tuple[]"
        }
      ],
      "stateMutability": "view",
      "type": "function",
      "constant": true
    },
    {
      "inputs": [],
      "name": "totalSupply",
      "outputs": [
        {
          "internalType": "uint256",
          "name": "total",
          "type": "uint256"
        }
      ],
      "stateMutability": "view",
      "type": "function",
      "constant": true
    },
    {
      "inputs": [],
      "name": "name",
      "outputs": [
        {
          "internalType": "string",
          "name": "tokenName",
          "type": "string"
        }
      ],
      "stateMutability": "pure",
      "type": "function",
      "constant": true
    },
    {
      "inputs": [],
      "name": "symbol",
      "outputs": [
        {
          "internalType": "string",
          "name": "tokenSymbol",
          "type": "string"
        }
      ],
      "stateMutability": "pure",
      "type": "function",
      "constant": true
    },
    {
      "inputs": [
        {
          "internalType": "uint256",
          "name": "tokenId",
          "type": "uint256"
        }
      ],
      "name": "ownerOf",
      "outputs": [
        {
          "internalType": "address",
          "name": "owner",
          "type": "address"
        }
      ],
      "stateMutability": "view",
      "type": "function",
      "constant": true
    },
    {
      "inputs": [
        {
          "internalType": "address",
          "name": "to",
          "type": "address"
        },
        {
          "internalType": "uint256",
          "name": "tokenId",
          "type": "uint256"
        }
      ],
      "name": "transfer",
      "outputs": [],
      "stateMutability": "nonpayable",
      "type": "function"
    }
  ],
  "bytecode": "0x608060405234801561001057600080fd5b50336000806101000a81548173ffffffffffffffffffffffffffffffffffffffff021916908373ffffffffffffffffffffffffffffffffffffffff160217905550611265806100606000396000f3fe608060405234801561001057600080fd5b50600436106100b45760003560e01c80638052474d116100715780638052474d1461019157806395d89b41146101af578063a9059cbb146101cd578063b03b1305146101e9578063d5a776ca14610207578063e98b7f4d14610237576100b4565b806306fdde03146100b957806318160ddd146100d75780633045aaf3146100f55780636352211e1461011357806370a08231146101435780637395302814610173575b600080fd5b6100c1610267565b6040516100ce9190610c06565b60405180910390f35b6100df6102a4565b6040516100ec9190610c41565b60405180910390f35b6100fd6102b1565b60405161010a9190610c06565b60405180910390f35b61012d60048036038101906101289190610c8d565b6102ea565b60405161013a9190610cfb565b60405180910390f35b61015d60048036038101906101589190610d42565b610327565b60405161016a9190610c41565b60405180910390f35b61017b610370565b6040516101889190610ef4565b60405180910390f35b6101996104b4565b6040516101a69190610c06565b60405180910390f35b6101b76104ed565b6040516101c49190610c06565b60405180910390f35b6101e760048036038101906101e29190610f16565b61052a565b005b6101f1610617565b6040516101fe9190610c41565b60405180910390f35b610221600480360381019061021c9190610c8d565b61061d565b60405161022e9190610c41565b60405180910390f35b610251600480360381019061024c9190610c8d565b610722565b60405161025e9190610fbe565b60405180910390f35b60606040518060400160405280600c81526020017f48656c6c6f4b6974746965730000000000000000000000000000000000000000815250905090565b6000600280549050905090565b6040518060400160405280600481526020017f484b54530000000000000000000000000000000000000000000000000000000081525081565b60006003600083815260200190815260200160002060009054906101000a900473ffffffffffffffffffffffffffffffffffffffff169050919050565b6000600460008373ffffffffffffffffffffffffffffffffffffffff1673ffffffffffffffffffffffffffffffffffffffff168152602001908152602001600020549050919050565b6060600560003373ffffffffffffffffffffffffffffffffffffffff1673ffffffffffffffffffffffffffffffffffffffff168152602001908152602001600020805480602002602001604051908101604052809291908181526020016000905b828210156104ab57838290600052602060002090600202016040518060a0016040529081600082015481526020016001820160009054906101000a900467ffffffffffffffff1667ffffffffffffffff1667ffffffffffffffff1681526020016001820160089054906101000a900463ffffffff1663ffffffff1663ffffffff16815260200160018201600c9054906101000a900463ffffffff1663ffffffff1663ffffffff1681526020016001820160109054906101000a900461ffff1661ffff1661ffff1681525050815260200190600101906103d1565b50505050905090565b6040518060400160405280600c81526020017f48656c6c6f4b697474696573000000000000000000000000000000000000000081525081565b60606040518060400160405280600481526020017f484b545300000000000000000000000000000000000000000000000000000000815250905090565b600073ffffffffffffffffffffffffffffffffffffffff168273ffffffffffffffffffffffffffffffffffffffff16141561056457600080fd5b3073ffffffffffffffffffffffffffffffffffffffff168273ffffffffffffffffffffffffffffffffffffffff16141561059d57600080fd5b3373ffffffffffffffffffffffffffffffffffffffff166003600083815260200190815260200160002060009054906101000a900473ffffffffffffffffffffffffffffffffffffffff1673ffffffffffffffffffffffffffffffffffffffff161461060857600080fd5b610613338383610806565b5050565b6103e881565b60008060009054906101000a900473ffffffffffffffffffffffffffffffffffffffff1673ffffffffffffffffffffffffffffffffffffffff163373ffffffffffffffffffffffffffffffffffffffff16146106ae576040517f08c379a00000000000000000000000000000000000000000000000000000000081526004016106a590611025565b60405180910390fd5b6103e8600154106106f4576040517f08c379a00000000000000000000000000000000000000000000000000000000081526004016106eb906110b7565b60405180910390fd5b6001600081548092919061070790611106565b919050555061071b60008060008533610997565b9050919050565b61072a610b24565b6002828154811061073e5761073d61114f565b5b90600052602060002090600202016040518060a0016040529081600082015481526020016001820160009054906101000a900467ffffffffffffffff1667ffffffffffffffff1667ffffffffffffffff1681526020016001820160089054906101000a900463ffffffff1663ffffffff1663ffffffff16815260200160018201600c9054906101000a900463ffffffff1663ffffffff1663ffffffff1681526020016001820160109054906101000a900461ffff1661ffff1661ffff16815250509050919050565b600460008373ffffffffffffffffffffffffffffffffffffffff1673ffffffffffffffffffffffffffffffffffffffff168152602001908152602001600020600081548092919061085690611106565b9190505550816003600083815260200190815260200160002060006101000a81548173ffffffffffffffffffffffffffffffffffffffff021916908373ffffffffffffffffffffffffffffffffffffffff160217905550600073ffffffffffffffffffffffffffffffffffffffff168373ffffffffffffffffffffffffffffffffffffffff161461093757600460008473ffffffffffffffffffffffffffffffffffffffff1673ffffffffffffffffffffffffffffffffffffffff16815260200190815260200160002060008154809291906109319061117e565b91905055505b808273ffffffffffffffffffffffffffffffffffffffff168473ffffffffffffffffffffffffffffffffffffffff167fddf252ad1be2c89b69c2b068fc378daa952ba7f163c4a11628f55a4df523b3ef60405160405180910390a4505050565b6000806040518060a001604052808581526020014267ffffffffffffffff1681526020018863ffffffff1681526020018763ffffffff1681526020018661ffff16815250905060028190806001815401808255809150506001900390600052602060002090600202016000909190919091506000820151816000015560208201518160010160006101000a81548167ffffffffffffffff021916908367ffffffffffffffff16021790555060408201518160010160086101000a81548163ffffffff021916908363ffffffff160217905550606082015181600101600c6101000a81548163ffffffff021916908363ffffffff16021790555060808201518160010160106101000a81548161ffff021916908361ffff160217905550505060006001600280549050610ac991906111a8565b90507f0a5311bd2a6608f08a180df2ee7c5946819a649b204b554bb8e39825b2c50ad584828a8a89604051610b029594939291906111dc565b60405180910390a1610b1660008583610806565b809250505095945050505050565b6040518060a0016040528060008152602001600067ffffffffffffffff168152602001600063ffffffff168152602001600063ffffffff168152602001600061ffff1681525090565b600081519050919050565b600082825260208201905092915050565b60005b83811015610ba7578082015181840152602081019050610b8c565b83811115610bb6576000848401525b50505050565b6000601f19601f8301169050919050565b6000610bd882610b6d565b610be28185610b78565b9350610bf2818560208601610b89565b610bfb81610bbc565b840191505092915050565b60006020820190508181036000830152610c208184610bcd565b905092915050565b6000819050919050565b610c3b81610c28565b82525050565b6000602082019050610c566000830184610c32565b92915050565b600080fd5b610c6a81610c28565b8114610c7557600080fd5b50565b600081359050610c8781610c61565b92915050565b600060208284031215610ca357610ca2610c5c565b5b6000610cb184828501610c78565b91505092915050565b600073ffffffffffffffffffffffffffffffffffffffff82169050919050565b6000610ce582610cba565b9050919050565b610cf581610cda565b82525050565b6000602082019050610d106000830184610cec565b92915050565b610d1f81610cda565b8114610d2a57600080fd5b50565b600081359050610d3c81610d16565b92915050565b600060208284031215610d5857610d57610c5c565b5b6000610d6684828501610d2d565b91505092915050565b600081519050919050565b600082825260208201905092915050565b6000819050602082019050919050565b610da481610c28565b82525050565b600067ffffffffffffffff82169050919050565b610dc781610daa565b82525050565b600063ffffffff82169050919050565b610de681610dcd565b82525050565b600061ffff82169050919050565b610e0381610dec565b82525050565b60a082016000820151610e1f6000850182610d9b565b506020820151610e326020850182610dbe565b506040820151610e456040850182610ddd565b506060820151610e586060850182610ddd565b506080820151610e6b6080850182610dfa565b50505050565b6000610e7d8383610e09565b60a08301905092915050565b6000602082019050919050565b6000610ea182610d6f565b610eab8185610d7a565b9350610eb683610d8b565b8060005b83811015610ee7578151610ece8882610e71565b9750610ed983610e89565b925050600181019050610eba565b5085935050505092915050565b60006020820190508181036000830152610f0e8184610e96565b905092915050565b60008060408385031215610f2d57610f2c610c5c565b5b6000610f3b85828601610d2d565b9250506020610f4c85828601610c78565b9150509250929050565b60a082016000820151610f6c6000850182610d9b565b506020820151610f7f6020850182610dbe565b506040820151610f926040850182610ddd565b506060820151610fa56060850182610ddd565b506080820151610fb86080850182610dfa565b50505050565b600060a082019050610fd36000830184610f56565b92915050565b7f43616c6c6572206973206e6f74206f776e657200000000000000000000000000600082015250565b600061100f601383610b78565b915061101a82610fd9565b602082019050919050565b6000602082019050818103600083015261103e81611002565b9050919050565b7f4d6178696d756d20616d6f756e74206f662047656e65726174696f6e2030206360008201527f6174732072656163686564000000000000000000000000000000000000000000602082015250565b60006110a1602b83610b78565b91506110ac82611045565b604082019050919050565b600060208201905081810360008301526110d081611094565b9050919050565b7f4e487b7100000000000000000000000000000000000000000000000000000000600052601160045260246000fd5b600061111182610c28565b91507fffffffffffffffffffffffffffffffffffffffffffffffffffffffffffffffff821415611144576111436110d7565b5b600182019050919050565b7f4e487b7100000000000000000000000000000000000000000000000000000000600052603260045260246000fd5b600061118982610c28565b9150600082141561119d5761119c6110d7565b5b600182039050919050565b60006111b382610c28565b91506111be83610c28565b9250828210156111d1576111d06110d7565b5b828203905092915050565b600060a0820190506111f16000830188610cec565b6111fe6020830187610c32565b61120b6040830186610c32565b6112186060830185610c32565b6112256080830184610c32565b969550505050505056fea26469706673582212200928fc044703d9440cf3ad085da964077a1a9150c719e4b18d8d288f4ba9c74864736f6c63430008090033",
  "immutableReferences": {},
  "source": "// SPDX-License-Identifier: UNLICENSED\r\npragma solidity ^0.8.9;\r\n\r\nimport \"./IERC721.sol\";\r\nimport \"./Ownable.sol\";\r\n\r\n//Contracts are considered abstract if at least ONE of their functions is not implemented\r\n\r\ncontract Kittycontract is IERC721, Ownable {\r\n\r\n    constructor() IERC721() {}\r\n\r\n    string public constant Name = \"HelloKitties\";\r\n    string public constant Symbol =\"HKTS\";\r\n    uint public constant MAX_AMOUNT_GEN0 = 1000;\r\n    uint gen0Counter;\r\n\r\n    event Birth(address owner, uint256 kittenId, uint256 mumId, uint256 dadId, uint256 genes);\r\n\r\n    struct Token {\r\n        uint256 genes;\r\n        uint64 birthTime;\r\n        uint32 mumId;\r\n        uint32 dadId;\r\n        uint16 generation;\r\n    }\r\n    Token[] allTokens;\r\n\r\n    mapping(uint256 => address) ownership;\r\n    mapping(address => uint) tokenAmount;\r\n    mapping(address => Token[]) allTokensPerOwner;  //My own addition\r\n    \r\n    function createKittyGen0(uint256 _genes) public onlyOwner returns(uint) {\r\n\r\n        require(gen0Counter < MAX_AMOUNT_GEN0, \"Maximum amount of Generation 0 cats reached\");\r\n        gen0Counter ++;\r\n\r\n        return _createKitty(0, 0, 0, _genes, msg.sender);\r\n    }\r\n\r\n    function _createKitty(\r\n        uint256 _mumId,\r\n        uint256 _dadId,\r\n        uint256 _generation,\r\n        uint256 _genes,\r\n        address _owner\r\n    ) private returns(uint256 tokenId) {\r\n\r\n        Token memory _newKitty = Token({\r\n            mumId: uint32(_mumId),\r\n            dadId: uint32(_dadId),\r\n            generation: uint16(_generation),\r\n            genes: _genes,\r\n            birthTime: uint64(block.timestamp)\r\n        });\r\n\r\n        allTokens.push(_newKitty);\r\n        uint256 newKittyId = allTokens.length - 1;\r\n\r\n        emit Birth(_owner, newKittyId, _mumId, _dadId, _genes);\r\n\r\n        _transfer(address(0), _owner, newKittyId);\r\n\r\n        return newKittyId;\r\n    }\r\n\r\n    function getKitty(uint tokenId) public view returns(Token memory) {\r\n        return allTokens[tokenId];\r\n    }\r\n\r\n    function balanceOf(address owner) external view returns (uint256 balance) {\r\n        return tokenAmount[owner];\r\n    }\r\n\r\n    //My own addition\r\n    function allNFTsPerOwner() public view returns (Token[] memory) {\r\n        return allTokensPerOwner[msg.sender];\r\n    }\r\n\r\n    function totalSupply() external view returns (uint256 total) {\r\n        return allTokens.length;\r\n    }\r\n\r\n    function name() external pure returns (string memory tokenName) {\r\n        return Name;\r\n    }\r\n\r\n    function symbol() external pure returns (string memory tokenSymbol) {\r\n        return Symbol;\r\n    }\r\n\r\n    function ownerOf(uint256 tokenId) external view returns (address owner) {\r\n        return ownership[tokenId];\r\n    }\r\n\r\n    function transfer(address to, uint256 tokenId) external {\r\n        require(to != address(0));\r\n        require(to != address(this));\r\n        require(ownership[tokenId] == msg.sender);\r\n        //require(_owns(msg.sender, tokenId));\r\n\r\n        _transfer(msg.sender, to, tokenId);\r\n    }\r\n\r\n    function _transfer(address _from, address _to, uint tokenId) internal {\r\n        tokenAmount[_to] ++;\r\n        ownership[tokenId] = _to;\r\n\r\n        if(_from != address(0)) {\r\n            tokenAmount[_from] --;\r\n        }\r\n\r\n        emit Transfer(_from, _to, tokenId);\r\n    }\r\n\r\n    /*\r\n    function _owns(address claimant, uint tokenId) internal view returns(bool) {\r\n        return ownership[tokenId] == claimant;\r\n    }\r\n    */\r\n}",
  "sourcePath": "C:\\Users\\Emmerich\\Documents\\Academy\\HelloKitties\\MyHelloKitties\\contracts\\Kittycontract.sol",
  "compiler": {
    "name": "solc",
    "version": "0.8.9+commit.e5eed63a.Emscripten.clang"
  },
  "schemaVersion": "3.4.3",
  "updatedAt": "2021-10-29T15:26:34.332Z",
  "networkType": "ethereum",
  "devdoc": {
    "kind": "dev",
    "methods": {
      "balanceOf(address)": {
        "details": "Returns the number of tokens in ``owner``'s account."
      },
      "ownerOf(uint256)": {
        "details": "Returns the owner of the `tokenId` token. Requirements: - `tokenId` must exist."
      }
    },
    "version": 1
  },
  "userdoc": {
    "kind": "user",
    "methods": {},
    "version": 1
  }
}