{
  "contractName": "Kittycontract",
  "abi": [
    {
      "inputs": [],
      "stateMutability": "nonpayable",
      "type": "constructor"
    },
    {
      "anonymous": false,
      "inputs": [
        {
          "indexed": true,
          "internalType": "address",
          "name": "owner",
          "type": "address"
        },
        {
          "indexed": true,
          "internalType": "address",
          "name": "approved",
          "type": "address"
        },
        {
          "indexed": true,
          "internalType": "uint256",
          "name": "tokenId",
          "type": "uint256"
        }
      ],
      "name": "Approval",
      "type": "event"
    },
    {
      "anonymous": false,
      "inputs": [
        {
          "indexed": false,
          "internalType": "address",
          "name": "owner",
          "type": "address"
        },
        {
          "indexed": false,
          "internalType": "uint256",
          "name": "kittenId",
          "type": "uint256"
        },
        {
          "indexed": false,
          "internalType": "uint256",
          "name": "mumId",
          "type": "uint256"
        },
        {
          "indexed": false,
          "internalType": "uint256",
          "name": "dadId",
          "type": "uint256"
        },
        {
          "indexed": false,
          "internalType": "uint256",
          "name": "genes",
          "type": "uint256"
        }
      ],
      "name": "Birth",
      "type": "event"
    },
    {
      "anonymous": false,
      "inputs": [
        {
          "indexed": true,
          "internalType": "address",
          "name": "from",
          "type": "address"
        },
        {
          "indexed": true,
          "internalType": "address",
          "name": "to",
          "type": "address"
        },
        {
          "indexed": true,
          "internalType": "uint256",
          "name": "tokenId",
          "type": "uint256"
        }
      ],
      "name": "Transfer",
      "type": "event"
    },
    {
      "inputs": [],
      "name": "MAX_AMOUNT_GEN0",
      "outputs": [
        {
          "internalType": "uint256",
          "name": "",
          "type": "uint256"
        }
      ],
      "stateMutability": "view",
      "type": "function",
      "constant": true
    },
    {
      "inputs": [],
      "name": "Name",
      "outputs": [
        {
          "internalType": "string",
          "name": "",
          "type": "string"
        }
      ],
      "stateMutability": "view",
      "type": "function",
      "constant": true
    },
    {
      "inputs": [],
      "name": "Symbol",
      "outputs": [
        {
          "internalType": "string",
          "name": "",
          "type": "string"
        }
      ],
      "stateMutability": "view",
      "type": "function",
      "constant": true
    },
    {
      "inputs": [
        {
          "internalType": "uint256",
          "name": "_genes",
          "type": "uint256"
        }
      ],
      "name": "createKittyGen0",
      "outputs": [
        {
          "internalType": "uint256",
          "name": "",
          "type": "uint256"
        }
      ],
      "stateMutability": "nonpayable",
      "type": "function"
    },
    {
      "inputs": [
        {
          "internalType": "address",
          "name": "owner",
          "type": "address"
        }
      ],
      "name": "balanceOf",
      "outputs": [
        {
          "internalType": "uint256",
          "name": "balance",
          "type": "uint256"
        }
      ],
      "stateMutability": "view",
      "type": "function",
      "constant": true
    },
    {
      "inputs": [],
      "name": "allNFTsPerOwner",
      "outputs": [
        {
          "components": [
            {
              "internalType": "uint256",
              "name": "genes",
              "type": "uint256"
            },
            {
              "internalType": "uint64",
              "name": "birthTime",
              "type": "uint64"
            },
            {
              "internalType": "uint32",
              "name": "mumId",
              "type": "uint32"
            },
            {
              "internalType": "uint32",
              "name": "dadId",
              "type": "uint32"
            },
            {
              "internalType": "uint16",
              "name": "generation",
              "type": "uint16"
            }
          ],
          "internalType": "struct Kittycontract.Token[]",
          "name": "",
          "type": "tuple[]"
        }
      ],
      "stateMutability": "view",
      "type": "function",
      "constant": true
    },
    {
      "inputs": [],
      "name": "totalSupply",
      "outputs": [
        {
          "internalType": "uint256",
          "name": "total",
          "type": "uint256"
        }
      ],
      "stateMutability": "view",
      "type": "function",
      "constant": true
    },
    {
      "inputs": [],
      "name": "name",
      "outputs": [
        {
          "internalType": "string",
          "name": "tokenName",
          "type": "string"
        }
      ],
      "stateMutability": "pure",
      "type": "function",
      "constant": true
    },
    {
      "inputs": [],
      "name": "symbol",
      "outputs": [
        {
          "internalType": "string",
          "name": "tokenSymbol",
          "type": "string"
        }
      ],
      "stateMutability": "pure",
      "type": "function",
      "constant": true
    },
    {
      "inputs": [
        {
          "internalType": "uint256",
          "name": "tokenId",
          "type": "uint256"
        }
      ],
      "name": "ownerOf",
      "outputs": [
        {
          "internalType": "address",
          "name": "owner",
          "type": "address"
        }
      ],
      "stateMutability": "view",
      "type": "function",
      "constant": true
    },
    {
      "inputs": [
        {
          "internalType": "address",
          "name": "to",
          "type": "address"
        },
        {
          "internalType": "uint256",
          "name": "tokenId",
          "type": "uint256"
        }
      ],
      "name": "transfer",
      "outputs": [],
      "stateMutability": "nonpayable",
      "type": "function"
    }
  ],
  "bytecode": "0x608060405234801561001057600080fd5b50336000806101000a81548173ffffffffffffffffffffffffffffffffffffffff021916908373ffffffffffffffffffffffffffffffffffffffff160217905550611049806100606000396000f3fe608060405234801561001057600080fd5b50600436106100a95760003560e01c8063739530281161007157806373953028146101685780638052474d1461018657806395d89b41146101a4578063a9059cbb146101c2578063b03b1305146101de578063d5a776ca146101fc576100a9565b806306fdde03146100ae57806318160ddd146100cc5780633045aaf3146100ea5780636352211e1461010857806370a0823114610138575b600080fd5b6100b661022c565b6040516100c39190610a9c565b60405180910390f35b6100d4610269565b6040516100e19190610ad7565b60405180910390f35b6100f2610276565b6040516100ff9190610a9c565b60405180910390f35b610122600480360381019061011d9190610b23565b6102af565b60405161012f9190610b91565b60405180910390f35b610152600480360381019061014d9190610bd8565b6102ec565b60405161015f9190610ad7565b60405180910390f35b610170610335565b60405161017d9190610d8a565b60405180910390f35b61018e610479565b60405161019b9190610a9c565b60405180910390f35b6101ac6104b2565b6040516101b99190610a9c565b60405180910390f35b6101dc60048036038101906101d79190610dac565b6104ef565b005b6101e66105dc565b6040516101f39190610ad7565b60405180910390f35b61021660048036038101906102119190610b23565b6105e1565b6040516102239190610ad7565b60405180910390f35b60606040518060400160405280600c81526020017f48656c6c6f4b6974746965730000000000000000000000000000000000000000815250905090565b6000600280549050905090565b6040518060400160405280600481526020017f484b54530000000000000000000000000000000000000000000000000000000081525081565b60006003600083815260200190815260200160002060009054906101000a900473ffffffffffffffffffffffffffffffffffffffff169050919050565b6000600460008373ffffffffffffffffffffffffffffffffffffffff1673ffffffffffffffffffffffffffffffffffffffff168152602001908152602001600020549050919050565b6060600560003373ffffffffffffffffffffffffffffffffffffffff1673ffffffffffffffffffffffffffffffffffffffff168152602001908152602001600020805480602002602001604051908101604052809291908181526020016000905b8282101561047057838290600052602060002090600202016040518060a0016040529081600082015481526020016001820160009054906101000a900467ffffffffffffffff1667ffffffffffffffff1667ffffffffffffffff1681526020016001820160089054906101000a900463ffffffff1663ffffffff1663ffffffff16815260200160018201600c9054906101000a900463ffffffff1663ffffffff1663ffffffff1681526020016001820160109054906101000a900461ffff1661ffff1661ffff168152505081526020019060010190610396565b50505050905090565b6040518060400160405280600c81526020017f48656c6c6f4b697474696573000000000000000000000000000000000000000081525081565b60606040518060400160405280600481526020017f484b545300000000000000000000000000000000000000000000000000000000815250905090565b600073ffffffffffffffffffffffffffffffffffffffff168273ffffffffffffffffffffffffffffffffffffffff16141561052957600080fd5b3073ffffffffffffffffffffffffffffffffffffffff168273ffffffffffffffffffffffffffffffffffffffff16141561056257600080fd5b3373ffffffffffffffffffffffffffffffffffffffff166003600083815260200190815260200160002060009054906101000a900473ffffffffffffffffffffffffffffffffffffffff1673ffffffffffffffffffffffffffffffffffffffff16146105cd57600080fd5b6105d83383836106e5565b5050565b600a81565b60008060009054906101000a900473ffffffffffffffffffffffffffffffffffffffff1673ffffffffffffffffffffffffffffffffffffffff163373ffffffffffffffffffffffffffffffffffffffff1614610672576040517f08c379a000000000000000000000000000000000000000000000000000000000815260040161066990610e38565b60405180910390fd5b600a600154106106b7576040517f08c379a00000000000000000000000000000000000000000000000000000000081526004016106ae90610eca565b60405180910390fd5b600160008154809291906106ca90610f19565b91905055506106de60008060008533610876565b9050919050565b600460008373ffffffffffffffffffffffffffffffffffffffff1673ffffffffffffffffffffffffffffffffffffffff168152602001908152602001600020600081548092919061073590610f19565b9190505550816003600083815260200190815260200160002060006101000a81548173ffffffffffffffffffffffffffffffffffffffff021916908373ffffffffffffffffffffffffffffffffffffffff160217905550600073ffffffffffffffffffffffffffffffffffffffff168373ffffffffffffffffffffffffffffffffffffffff161461081657600460008473ffffffffffffffffffffffffffffffffffffffff1673ffffffffffffffffffffffffffffffffffffffff168152602001908152602001600020600081548092919061081090610f62565b91905055505b808273ffffffffffffffffffffffffffffffffffffffff168473ffffffffffffffffffffffffffffffffffffffff167fddf252ad1be2c89b69c2b068fc378daa952ba7f163c4a11628f55a4df523b3ef60405160405180910390a4505050565b6000806040518060a001604052808581526020014267ffffffffffffffff1681526020018863ffffffff1681526020018763ffffffff1681526020018661ffff16815250905060028190806001815401808255809150506001900390600052602060002090600202016000909190919091506000820151816000015560208201518160010160006101000a81548167ffffffffffffffff021916908367ffffffffffffffff16021790555060408201518160010160086101000a81548163ffffffff021916908363ffffffff160217905550606082015181600101600c6101000a81548163ffffffff021916908363ffffffff16021790555060808201518160010160106101000a81548161ffff021916908361ffff1602179055505050600060016002805490506109a89190610f8c565b90507f0a5311bd2a6608f08a180df2ee7c5946819a649b204b554bb8e39825b2c50ad584828a8a896040516109e1959493929190610fc0565b60405180910390a16109f5600085836106e5565b809250505095945050505050565b600081519050919050565b600082825260208201905092915050565b60005b83811015610a3d578082015181840152602081019050610a22565b83811115610a4c576000848401525b50505050565b6000601f19601f8301169050919050565b6000610a6e82610a03565b610a788185610a0e565b9350610a88818560208601610a1f565b610a9181610a52565b840191505092915050565b60006020820190508181036000830152610ab68184610a63565b905092915050565b6000819050919050565b610ad181610abe565b82525050565b6000602082019050610aec6000830184610ac8565b92915050565b600080fd5b610b0081610abe565b8114610b0b57600080fd5b50565b600081359050610b1d81610af7565b92915050565b600060208284031215610b3957610b38610af2565b5b6000610b4784828501610b0e565b91505092915050565b600073ffffffffffffffffffffffffffffffffffffffff82169050919050565b6000610b7b82610b50565b9050919050565b610b8b81610b70565b82525050565b6000602082019050610ba66000830184610b82565b92915050565b610bb581610b70565b8114610bc057600080fd5b50565b600081359050610bd281610bac565b92915050565b600060208284031215610bee57610bed610af2565b5b6000610bfc84828501610bc3565b91505092915050565b600081519050919050565b600082825260208201905092915050565b6000819050602082019050919050565b610c3a81610abe565b82525050565b600067ffffffffffffffff82169050919050565b610c5d81610c40565b82525050565b600063ffffffff82169050919050565b610c7c81610c63565b82525050565b600061ffff82169050919050565b610c9981610c82565b82525050565b60a082016000820151610cb56000850182610c31565b506020820151610cc86020850182610c54565b506040820151610cdb6040850182610c73565b506060820151610cee6060850182610c73565b506080820151610d016080850182610c90565b50505050565b6000610d138383610c9f565b60a08301905092915050565b6000602082019050919050565b6000610d3782610c05565b610d418185610c10565b9350610d4c83610c21565b8060005b83811015610d7d578151610d648882610d07565b9750610d6f83610d1f565b925050600181019050610d50565b5085935050505092915050565b60006020820190508181036000830152610da48184610d2c565b905092915050565b60008060408385031215610dc357610dc2610af2565b5b6000610dd185828601610bc3565b9250506020610de285828601610b0e565b9150509250929050565b7f43616c6c6572206973206e6f74206f776e657200000000000000000000000000600082015250565b6000610e22601383610a0e565b9150610e2d82610dec565b602082019050919050565b60006020820190508181036000830152610e5181610e15565b9050919050565b7f4d6178696d756d20616d6f756e74206f662047656e65726174696f6e2030206360008201527f6174732072656163686564000000000000000000000000000000000000000000602082015250565b6000610eb4602b83610a0e565b9150610ebf82610e58565b604082019050919050565b60006020820190508181036000830152610ee381610ea7565b9050919050565b7f4e487b7100000000000000000000000000000000000000000000000000000000600052601160045260246000fd5b6000610f2482610abe565b91507fffffffffffffffffffffffffffffffffffffffffffffffffffffffffffffffff821415610f5757610f56610eea565b5b600182019050919050565b6000610f6d82610abe565b91506000821415610f8157610f80610eea565b5b600182039050919050565b6000610f9782610abe565b9150610fa283610abe565b925082821015610fb557610fb4610eea565b5b828203905092915050565b600060a082019050610fd56000830188610b82565b610fe26020830187610ac8565b610fef6040830186610ac8565b610ffc6060830185610ac8565b6110096080830184610ac8565b969550505050505056fea2646970667358221220ea8a3449e7b85e8815a04a3cee23f10ce8d7d20b146e403ade56c0e83182d7aa64736f6c63430008090033",
  "immutableReferences": {},
  "source": "// SPDX-License-Identifier: UNLICENSED\r\npragma solidity ^0.8.9;\r\n\r\nimport \"./IERC721.sol\";\r\nimport \"./Ownable.sol\";\r\n\r\n//Contracts are considered abstract if at least ONE of their functions is not implemented\r\n\r\ncontract Kittycontract is IERC721, Ownable {\r\n\r\n    constructor() IERC721() {}\r\n\r\n    string public constant Name = \"HelloKitties\";\r\n    string public constant Symbol =\"HKTS\";\r\n    uint public constant MAX_AMOUNT_GEN0 = 10;\r\n    uint gen0Counter;\r\n\r\n    event Birth(address owner, uint256 kittenId, uint256 mumId, uint256 dadId, uint256 genes);\r\n\r\n    struct Token {\r\n        uint256 genes;\r\n        uint64 birthTime;\r\n        uint32 mumId;\r\n        uint32 dadId;\r\n        uint16 generation;\r\n    }\r\n    Token[] allTokens;\r\n\r\n    mapping(uint256 => address) ownership;\r\n    mapping(address => uint) tokenAmount;\r\n    mapping(address => Token[]) allTokensPerOwner;  //My own addition\r\n    \r\n    function createKittyGen0(uint256 _genes) public onlyOwner returns(uint) {\r\n\r\n        require(gen0Counter < MAX_AMOUNT_GEN0, \"Maximum amount of Generation 0 cats reached\");\r\n        gen0Counter ++;\r\n\r\n        return _createKitty(0, 0, 0, _genes, msg.sender);\r\n    }\r\n\r\n    function _createKitty(\r\n        uint256 _mumId,\r\n        uint256 _dadId,\r\n        uint256 _generation,\r\n        uint256 _genes,\r\n        address _owner\r\n    ) private returns(uint256 tokenId) {\r\n\r\n        Token memory _newKitty = Token({\r\n            mumId: uint32(_mumId),\r\n            dadId: uint32(_dadId),\r\n            generation: uint16(_generation),\r\n            genes: _genes,\r\n            birthTime: uint64(block.timestamp)\r\n        });\r\n\r\n        allTokens.push(_newKitty);\r\n        uint256 newKittyId = allTokens.length - 1;\r\n\r\n        emit Birth(_owner, newKittyId, _mumId, _dadId, _genes);\r\n\r\n        _transfer(address(0), _owner, newKittyId);\r\n\r\n        return newKittyId;\r\n    }\r\n\r\n    function balanceOf(address owner) external view returns (uint256 balance) {\r\n        return tokenAmount[owner];\r\n    }\r\n\r\n    //My own addition\r\n    function allNFTsPerOwner() public view returns (Token[] memory) {\r\n        return allTokensPerOwner[msg.sender];\r\n    }\r\n\r\n    function totalSupply() external view returns (uint256 total) {\r\n        return allTokens.length;\r\n    }\r\n\r\n    function name() external pure returns (string memory tokenName) {\r\n        return Name;\r\n    }\r\n\r\n    function symbol() external pure returns (string memory tokenSymbol) {\r\n        return Symbol;\r\n    }\r\n\r\n    function ownerOf(uint256 tokenId) external view returns (address owner) {\r\n        return ownership[tokenId];\r\n    }\r\n\r\n    function transfer(address to, uint256 tokenId) external {\r\n        require(to != address(0));\r\n        require(to != address(this));\r\n        require(ownership[tokenId] == msg.sender);\r\n        //require(_owns(msg.sender, tokenId));\r\n\r\n        _transfer(msg.sender, to, tokenId);\r\n    }\r\n\r\n    function _transfer(address _from, address _to, uint tokenId) internal {\r\n        tokenAmount[_to] ++;\r\n        ownership[tokenId] = _to;\r\n\r\n        if(_from != address(0)) {\r\n            tokenAmount[_from] --;\r\n        }\r\n\r\n        emit Transfer(_from, _to, tokenId);\r\n    }\r\n\r\n    /*\r\n    function _owns(address claimant, uint tokenId) internal view returns(bool) {\r\n        return ownership[tokenId] == claimant;\r\n    }\r\n    */\r\n}",
  "sourcePath": "C:\\Users\\Emmerich\\Documents\\Academy\\HelloKittites\\MyHelloKitties\\contracts\\Kittycontract.sol",
  "compiler": {
    "name": "solc",
    "version": "0.8.9+commit.e5eed63a.Emscripten.clang"
  },
  "schemaVersion": "3.4.3",
  "updatedAt": "2021-10-16T06:20:05.803Z",
  "networkType": "ethereum",
  "devdoc": {
    "kind": "dev",
    "methods": {
      "balanceOf(address)": {
        "details": "Returns the number of tokens in ``owner``'s account."
      },
      "ownerOf(uint256)": {
        "details": "Returns the owner of the `tokenId` token. Requirements: - `tokenId` must exist."
      }
    },
    "version": 1
  },
  "userdoc": {
    "kind": "user",
    "methods": {},
    "version": 1
  }
}