{
  "contractName": "Kittycontract",
  "abi": [
    {
      "inputs": [],
      "stateMutability": "nonpayable",
      "type": "constructor"
    },
    {
      "anonymous": false,
      "inputs": [
        {
          "indexed": true,
          "internalType": "address",
          "name": "owner",
          "type": "address"
        },
        {
          "indexed": true,
          "internalType": "address",
          "name": "approved",
          "type": "address"
        },
        {
          "indexed": true,
          "internalType": "uint256",
          "name": "tokenId",
          "type": "uint256"
        }
      ],
      "name": "Approval",
      "type": "event"
    },
    {
      "anonymous": false,
      "inputs": [
        {
          "indexed": true,
          "internalType": "address",
          "name": "owner",
          "type": "address"
        },
        {
          "indexed": true,
          "internalType": "address",
          "name": "operator",
          "type": "address"
        },
        {
          "indexed": false,
          "internalType": "bool",
          "name": "approved",
          "type": "bool"
        }
      ],
      "name": "ApprovalForAll",
      "type": "event"
    },
    {
      "anonymous": false,
      "inputs": [
        {
          "indexed": false,
          "internalType": "address",
          "name": "owner",
          "type": "address"
        },
        {
          "indexed": false,
          "internalType": "uint256",
          "name": "kittenId",
          "type": "uint256"
        },
        {
          "indexed": false,
          "internalType": "uint256",
          "name": "mumId",
          "type": "uint256"
        },
        {
          "indexed": false,
          "internalType": "uint256",
          "name": "dadId",
          "type": "uint256"
        },
        {
          "indexed": false,
          "internalType": "uint256",
          "name": "genes",
          "type": "uint256"
        }
      ],
      "name": "Birth",
      "type": "event"
    },
    {
      "anonymous": false,
      "inputs": [
        {
          "indexed": true,
          "internalType": "address",
          "name": "from",
          "type": "address"
        },
        {
          "indexed": true,
          "internalType": "address",
          "name": "to",
          "type": "address"
        },
        {
          "indexed": true,
          "internalType": "uint256",
          "name": "tokenId",
          "type": "uint256"
        }
      ],
      "name": "Transfer",
      "type": "event"
    },
    {
      "inputs": [],
      "name": "MAX_AMOUNT_GEN0",
      "outputs": [
        {
          "internalType": "uint256",
          "name": "",
          "type": "uint256"
        }
      ],
      "stateMutability": "view",
      "type": "function",
      "constant": true
    },
    {
      "inputs": [],
      "name": "Name",
      "outputs": [
        {
          "internalType": "string",
          "name": "",
          "type": "string"
        }
      ],
      "stateMutability": "view",
      "type": "function",
      "constant": true
    },
    {
      "inputs": [],
      "name": "Symbol",
      "outputs": [
        {
          "internalType": "string",
          "name": "",
          "type": "string"
        }
      ],
      "stateMutability": "view",
      "type": "function",
      "constant": true
    },
    {
      "inputs": [
        {
          "internalType": "uint256",
          "name": "",
          "type": "uint256"
        }
      ],
      "name": "approveToken",
      "outputs": [
        {
          "internalType": "address",
          "name": "",
          "type": "address"
        }
      ],
      "stateMutability": "view",
      "type": "function",
      "constant": true
    },
    {
      "inputs": [
        {
          "internalType": "uint256",
          "name": "_genes",
          "type": "uint256"
        }
      ],
      "name": "createKittyGen0",
      "outputs": [
        {
          "internalType": "uint256",
          "name": "",
          "type": "uint256"
        }
      ],
      "stateMutability": "nonpayable",
      "type": "function"
    },
    {
      "inputs": [
        {
          "internalType": "uint256",
          "name": "tokenId",
          "type": "uint256"
        }
      ],
      "name": "getKitty",
      "outputs": [
        {
          "components": [
            {
              "internalType": "uint256",
              "name": "genes",
              "type": "uint256"
            },
            {
              "internalType": "uint64",
              "name": "birthTime",
              "type": "uint64"
            },
            {
              "internalType": "uint32",
              "name": "mumId",
              "type": "uint32"
            },
            {
              "internalType": "uint32",
              "name": "dadId",
              "type": "uint32"
            },
            {
              "internalType": "uint16",
              "name": "generation",
              "type": "uint16"
            }
          ],
          "internalType": "struct Kittycontract.Token",
          "name": "",
          "type": "tuple"
        }
      ],
      "stateMutability": "view",
      "type": "function",
      "constant": true
    },
    {
      "inputs": [
        {
          "internalType": "address",
          "name": "owner",
          "type": "address"
        }
      ],
      "name": "balanceOf",
      "outputs": [
        {
          "internalType": "uint256",
          "name": "balance",
          "type": "uint256"
        }
      ],
      "stateMutability": "view",
      "type": "function",
      "constant": true
    },
    {
      "inputs": [
        {
          "internalType": "address",
          "name": "user",
          "type": "address"
        }
      ],
      "name": "allNFTsPerOwner",
      "outputs": [
        {
          "internalType": "uint256[]",
          "name": "",
          "type": "uint256[]"
        }
      ],
      "stateMutability": "view",
      "type": "function",
      "constant": true
    },
    {
      "inputs": [],
      "name": "totalSupply",
      "outputs": [
        {
          "internalType": "uint256",
          "name": "total",
          "type": "uint256"
        }
      ],
      "stateMutability": "view",
      "type": "function",
      "constant": true
    },
    {
      "inputs": [],
      "name": "name",
      "outputs": [
        {
          "internalType": "string",
          "name": "tokenName",
          "type": "string"
        }
      ],
      "stateMutability": "pure",
      "type": "function",
      "constant": true
    },
    {
      "inputs": [],
      "name": "symbol",
      "outputs": [
        {
          "internalType": "string",
          "name": "tokenSymbol",
          "type": "string"
        }
      ],
      "stateMutability": "pure",
      "type": "function",
      "constant": true
    },
    {
      "inputs": [
        {
          "internalType": "uint256",
          "name": "tokenId",
          "type": "uint256"
        }
      ],
      "name": "ownerOf",
      "outputs": [
        {
          "internalType": "address",
          "name": "owner",
          "type": "address"
        }
      ],
      "stateMutability": "view",
      "type": "function",
      "constant": true
    },
    {
      "inputs": [
        {
          "internalType": "address",
          "name": "to",
          "type": "address"
        },
        {
          "internalType": "uint256",
          "name": "tokenId",
          "type": "uint256"
        }
      ],
      "name": "transfer",
      "outputs": [],
      "stateMutability": "nonpayable",
      "type": "function"
    },
    {
      "inputs": [
        {
          "internalType": "address",
          "name": "_approved",
          "type": "address"
        },
        {
          "internalType": "uint256",
          "name": "_tokenId",
          "type": "uint256"
        }
      ],
      "name": "approve",
      "outputs": [],
      "stateMutability": "nonpayable",
      "type": "function"
    },
    {
      "inputs": [
        {
          "internalType": "uint256",
          "name": "_tokenId",
          "type": "uint256"
        }
      ],
      "name": "getApproved",
      "outputs": [
        {
          "internalType": "address",
          "name": "",
          "type": "address"
        }
      ],
      "stateMutability": "view",
      "type": "function",
      "constant": true
    },
    {
      "inputs": [
        {
          "internalType": "address",
          "name": "_operator",
          "type": "address"
        },
        {
          "internalType": "bool",
          "name": "_approved",
          "type": "bool"
        }
      ],
      "name": "setApprovalForAll",
      "outputs": [],
      "stateMutability": "nonpayable",
      "type": "function"
    },
    {
      "inputs": [
        {
          "internalType": "address",
          "name": "_owner",
          "type": "address"
        },
        {
          "internalType": "address",
          "name": "_operator",
          "type": "address"
        }
      ],
      "name": "isApprovedForAll",
      "outputs": [
        {
          "internalType": "bool",
          "name": "",
          "type": "bool"
        }
      ],
      "stateMutability": "view",
      "type": "function",
      "constant": true
    },
    {
      "inputs": [
        {
          "internalType": "address",
          "name": "_from",
          "type": "address"
        },
        {
          "internalType": "address",
          "name": "_to",
          "type": "address"
        },
        {
          "internalType": "uint256",
          "name": "_tokenId",
          "type": "uint256"
        }
      ],
      "name": "transferFrom",
      "outputs": [],
      "stateMutability": "nonpayable",
      "type": "function"
    },
    {
      "inputs": [
        {
          "internalType": "address",
          "name": "_from",
          "type": "address"
        },
        {
          "internalType": "address",
          "name": "_to",
          "type": "address"
        },
        {
          "internalType": "uint256",
          "name": "_tokenId",
          "type": "uint256"
        }
      ],
      "name": "safeTransferFrom",
      "outputs": [],
      "stateMutability": "nonpayable",
      "type": "function"
    },
    {
      "inputs": [
        {
          "internalType": "address",
          "name": "_from",
          "type": "address"
        },
        {
          "internalType": "address",
          "name": "_to",
          "type": "address"
        },
        {
          "internalType": "uint256",
          "name": "_tokenId",
          "type": "uint256"
        },
        {
          "internalType": "bytes",
          "name": "_data",
          "type": "bytes"
        }
      ],
      "name": "safeTransferFrom",
      "outputs": [],
      "stateMutability": "nonpayable",
      "type": "function"
    },
    {
      "inputs": [
        {
          "internalType": "address",
          "name": "_from",
          "type": "address"
        },
        {
          "internalType": "address",
          "name": "_to",
          "type": "address"
        },
        {
          "internalType": "uint256",
          "name": "_tokenId",
          "type": "uint256"
        },
        {
          "internalType": "bytes",
          "name": "_data",
          "type": "bytes"
        }
      ],
      "name": "_safeTransfer",
      "outputs": [],
      "stateMutability": "nonpayable",
      "type": "function"
    },
    {
      "inputs": [
        {
          "internalType": "bytes4",
          "name": "_interfaceId",
          "type": "bytes4"
        }
      ],
      "name": "supportsInterface",
      "outputs": [
        {
          "internalType": "bool",
          "name": "",
          "type": "bool"
        }
      ],
      "stateMutability": "pure",
      "type": "function",
      "constant": true
    },
    {
      "inputs": [
        {
          "internalType": "uint256",
          "name": "_mumId",
          "type": "uint256"
        },
        {
          "internalType": "uint256",
          "name": "_dadId",
          "type": "uint256"
        }
      ],
      "name": "breed",
      "outputs": [],
      "stateMutability": "nonpayable",
      "type": "function"
    },
    {
      "inputs": [
        {
          "internalType": "uint256",
          "name": "_mumDNA",
          "type": "uint256"
        },
        {
          "internalType": "uint256",
          "name": "_dadDNA",
          "type": "uint256"
        }
      ],
      "name": "_mixDNA",
      "outputs": [
        {
          "internalType": "uint256",
          "name": "",
          "type": "uint256"
        }
      ],
      "stateMutability": "pure",
      "type": "function",
      "constant": true
    }
  ],
  "bytecode": "0x608060405234801561001057600080fd5b50336000806101000a81548173ffffffffffffffffffffffffffffffffffffffff021916908373ffffffffffffffffffffffffffffffffffffffff160217905550613111806100606000396000f3fe608060405234801561001057600080fd5b50600436106101585760003560e01c80636352211e116100c3578063b03b13051161007c578063b03b1305146103eb578063b88d4fde14610409578063d5a776ca14610425578063d9ecad7b14610455578063e985e9c514610471578063e98b7f4d146104a157610158565b80636352211e1461031757806370a08231146103475780638052474d1461037757806395d89b4114610395578063a22cb465146103b3578063a9059cbb146103cf57610158565b806323b872dd1161011557806323b872dd1461024557806324b6b8c0146102615780633045aaf31461027d5780633ac9fc111461029b5780633e5cc4f7146102cb57806342842e0e146102fb57610158565b806301ffc9a71461015d57806306fdde031461018d578063081812fc146101ab578063095ea7b3146101db57806312da13bc146101f757806318160ddd14610227575b600080fd5b6101776004803603810190610172919061202b565b6104d1565b6040516101849190612073565b60405180910390f35b610195610571565b6040516101a29190612127565b60405180910390f35b6101c560048036038101906101c0919061217f565b6105ae565b6040516101d291906121ed565b60405180910390f35b6101f560048036038101906101f09190612234565b610632565b005b610211600480360381019061020c9190612274565b6107a5565b60405161021e91906122c3565b60405180910390f35b61022f6107f9565b60405161023c91906122c3565b60405180910390f35b61025f600480360381019061025a91906122de565b610806565b005b61027b60048036038101906102769190612466565b610ada565b005b610285610b00565b6040516102929190612127565b60405180910390f35b6102b560048036038101906102b0919061217f565b610b39565b6040516102c291906121ed565b60405180910390f35b6102e560048036038101906102e091906124e9565b610b6c565b6040516102f291906125d4565b60405180910390f35b610315600480360381019061031091906122de565b610c03565b005b610331600480360381019061032c919061217f565b610ee7565b60405161033e91906121ed565b60405180910390f35b610361600480360381019061035c91906124e9565b610f24565b60405161036e91906122c3565b60405180910390f35b61037f610f6d565b60405161038c9190612127565b60405180910390f35b61039d610fa6565b6040516103aa9190612127565b60405180910390f35b6103cd60048036038101906103c89190612622565b610fe3565b005b6103e960048036038101906103e49190612234565b6110c5565b005b6103f36111b2565b60405161040091906122c3565b60405180910390f35b610423600480360381019061041e91906126c2565b6111b8565b005b61043f600480360381019061043a919061217f565b6114d3565b60405161044c91906122c3565b60405180910390f35b61046f600480360381019061046a9190612274565b6115d8565b005b61048b6004803603810190610486919061274a565b611823565b6040516104989190612073565b60405180910390f35b6104bb60048036038101906104b6919061217f565b6118b7565b6040516104c89190612851565b60405180910390f35b60006380ac58cd60e01b7bffffffffffffffffffffffffffffffffffffffffffffffffffffffff1916827bffffffffffffffffffffffffffffffffffffffffffffffffffffffff1916148061056a57506301ffc9a760e01b7bffffffffffffffffffffffffffffffffffffffffffffffffffffffff1916827bffffffffffffffffffffffffffffffffffffffffffffffffffffffff1916145b9050919050565b60606040518060400160405280600c81526020017f48656c6c6f4b6974746965730000000000000000000000000000000000000000815250905090565b600060028054905082106105f7576040517f08c379a00000000000000000000000000000000000000000000000000000000081526004016105ee906128b8565b60405180910390fd5b6006600083815260200190815260200160002060009054906101000a900473ffffffffffffffffffffffffffffffffffffffff169050919050565b3373ffffffffffffffffffffffffffffffffffffffff166003600083815260200190815260200160002060009054906101000a900473ffffffffffffffffffffffffffffffffffffffff1673ffffffffffffffffffffffffffffffffffffffff1614806106fd57503373ffffffffffffffffffffffffffffffffffffffff166006600083815260200190815260200160002060009054906101000a900473ffffffffffffffffffffffffffffffffffffffff1673ffffffffffffffffffffffffffffffffffffffff16145b61073c576040517f08c379a00000000000000000000000000000000000000000000000000000000081526004016107339061294a565b60405180910390fd5b610746828261199b565b808273ffffffffffffffffffffffffffffffffffffffff163373ffffffffffffffffffffffffffffffffffffffff167f8c5be1e5ebec7d5bd14f71427d1e84f3dd0314c0f7b2291e5b200ac8c7c3b92560405160405180910390a45050565b6000806305f5e100836107b891906129c8565b905060006305f5e100856107cc91906129f9565b90506000816305f5e100846107e19190612a2a565b6107eb9190612a84565b905080935050505092915050565b6000600280549050905090565b3373ffffffffffffffffffffffffffffffffffffffff166003600083815260200190815260200160002060009054906101000a900473ffffffffffffffffffffffffffffffffffffffff1673ffffffffffffffffffffffffffffffffffffffff1614806108d157503373ffffffffffffffffffffffffffffffffffffffff166006600083815260200190815260200160002060009054906101000a900473ffffffffffffffffffffffffffffffffffffffff1673ffffffffffffffffffffffffffffffffffffffff16145b80610969575060011515600760008573ffffffffffffffffffffffffffffffffffffffff1673ffffffffffffffffffffffffffffffffffffffff16815260200190815260200160002060003373ffffffffffffffffffffffffffffffffffffffff1673ffffffffffffffffffffffffffffffffffffffff16815260200190815260200160002060009054906101000a900460ff161515145b6109a8576040517f08c379a000000000000000000000000000000000000000000000000000000000815260040161099f90612b4c565b60405180910390fd5b8273ffffffffffffffffffffffffffffffffffffffff166003600083815260200190815260200160002060009054906101000a900473ffffffffffffffffffffffffffffffffffffffff1673ffffffffffffffffffffffffffffffffffffffff1614610a49576040517f08c379a0000000000000000000000000000000000000000000000000000000008152600401610a4090612bb8565b60405180910390fd5b6002805490508110610a90576040517f08c379a0000000000000000000000000000000000000000000000000000000008152600401610a87906128b8565b60405180910390fd5b600073ffffffffffffffffffffffffffffffffffffffff168273ffffffffffffffffffffffffffffffffffffffff161415610aca57600080fd5b610ad58383836119f1565b505050565b610ae58484846119f1565b610af184848484611bb8565b610afa57600080fd5b50505050565b6040518060400160405280600481526020017f484b54530000000000000000000000000000000000000000000000000000000081525081565b60066020528060005260406000206000915054906101000a900473ffffffffffffffffffffffffffffffffffffffff1681565b6060600560008373ffffffffffffffffffffffffffffffffffffffff1673ffffffffffffffffffffffffffffffffffffffff168152602001908152602001600020805480602002602001604051908101604052809291908181526020018280548015610bf757602002820191906000526020600020905b815481526020019060010190808311610be3575b50505050509050919050565b3373ffffffffffffffffffffffffffffffffffffffff166003600083815260200190815260200160002060009054906101000a900473ffffffffffffffffffffffffffffffffffffffff1673ffffffffffffffffffffffffffffffffffffffff161480610cce57503373ffffffffffffffffffffffffffffffffffffffff166006600083815260200190815260200160002060009054906101000a900473ffffffffffffffffffffffffffffffffffffffff1673ffffffffffffffffffffffffffffffffffffffff16145b80610d66575060011515600760008573ffffffffffffffffffffffffffffffffffffffff1673ffffffffffffffffffffffffffffffffffffffff16815260200190815260200160002060003373ffffffffffffffffffffffffffffffffffffffff1673ffffffffffffffffffffffffffffffffffffffff16815260200190815260200160002060009054906101000a900460ff161515145b610da5576040517f08c379a0000000000000000000000000000000000000000000000000000000008152600401610d9c90612b4c565b60405180910390fd5b8273ffffffffffffffffffffffffffffffffffffffff166003600083815260200190815260200160002060009054906101000a900473ffffffffffffffffffffffffffffffffffffffff1673ffffffffffffffffffffffffffffffffffffffff1614610e46576040517f08c379a0000000000000000000000000000000000000000000000000000000008152600401610e3d90612bb8565b60405180910390fd5b6002805490508110610e8d576040517f08c379a0000000000000000000000000000000000000000000000000000000008152600401610e84906128b8565b60405180910390fd5b600073ffffffffffffffffffffffffffffffffffffffff168273ffffffffffffffffffffffffffffffffffffffff161415610ec757600080fd5b610ee283838360405180602001604052806000815250610ada565b505050565b60006003600083815260200190815260200160002060009054906101000a900473ffffffffffffffffffffffffffffffffffffffff169050919050565b6000600460008373ffffffffffffffffffffffffffffffffffffffff1673ffffffffffffffffffffffffffffffffffffffff168152602001908152602001600020549050919050565b6040518060400160405280600c81526020017f48656c6c6f4b697474696573000000000000000000000000000000000000000081525081565b60606040518060400160405280600481526020017f484b545300000000000000000000000000000000000000000000000000000000815250905090565b8173ffffffffffffffffffffffffffffffffffffffff163373ffffffffffffffffffffffffffffffffffffffff161415611052576040517f08c379a000000000000000000000000000000000000000000000000000000000815260040161104990612c24565b60405180910390fd5b61105c8282611cd2565b8173ffffffffffffffffffffffffffffffffffffffff163373ffffffffffffffffffffffffffffffffffffffff167f17307eab39ab6107e8899845ad3d59bd9653f200f220920489ca2b5937696c31836040516110b99190612073565b60405180910390a35050565b600073ffffffffffffffffffffffffffffffffffffffff168273ffffffffffffffffffffffffffffffffffffffff1614156110ff57600080fd5b3073ffffffffffffffffffffffffffffffffffffffff168273ffffffffffffffffffffffffffffffffffffffff16141561113857600080fd5b3373ffffffffffffffffffffffffffffffffffffffff166003600083815260200190815260200160002060009054906101000a900473ffffffffffffffffffffffffffffffffffffffff1673ffffffffffffffffffffffffffffffffffffffff16146111a357600080fd5b6111ae3383836119f1565b5050565b6103e881565b3373ffffffffffffffffffffffffffffffffffffffff166003600085815260200190815260200160002060009054906101000a900473ffffffffffffffffffffffffffffffffffffffff1673ffffffffffffffffffffffffffffffffffffffff16148061128357503373ffffffffffffffffffffffffffffffffffffffff166006600085815260200190815260200160002060009054906101000a900473ffffffffffffffffffffffffffffffffffffffff1673ffffffffffffffffffffffffffffffffffffffff16145b8061131b575060011515600760008773ffffffffffffffffffffffffffffffffffffffff1673ffffffffffffffffffffffffffffffffffffffff16815260200190815260200160002060003373ffffffffffffffffffffffffffffffffffffffff1673ffffffffffffffffffffffffffffffffffffffff16815260200190815260200160002060009054906101000a900460ff161515145b61135a576040517f08c379a000000000000000000000000000000000000000000000000000000000815260040161135190612b4c565b60405180910390fd5b8473ffffffffffffffffffffffffffffffffffffffff166003600085815260200190815260200160002060009054906101000a900473ffffffffffffffffffffffffffffffffffffffff1673ffffffffffffffffffffffffffffffffffffffff16146113fb576040517f08c379a00000000000000000000000000000000000000000000000000000000081526004016113f290612bb8565b60405180910390fd5b6002805490508310611442576040517f08c379a0000000000000000000000000000000000000000000000000000000008152600401611439906128b8565b60405180910390fd5b600073ffffffffffffffffffffffffffffffffffffffff168473ffffffffffffffffffffffffffffffffffffffff16141561147c57600080fd5b6114cc85858585858080601f016020809104026020016040519081016040528093929190818152602001838380828437600081840152601f19601f82011690508083019250505050505050610ada565b5050505050565b60008060009054906101000a900473ffffffffffffffffffffffffffffffffffffffff1673ffffffffffffffffffffffffffffffffffffffff163373ffffffffffffffffffffffffffffffffffffffff1614611564576040517f08c379a000000000000000000000000000000000000000000000000000000000815260040161155b90612c90565b60405180910390fd5b6103e8600154106115aa576040517f08c379a00000000000000000000000000000000000000000000000000000000081526004016115a190612d22565b60405180910390fd5b600160008154809291906115bd90612d42565b91905055506115d160008060008533611d6a565b9050919050565b3373ffffffffffffffffffffffffffffffffffffffff166003600084815260200190815260200160002060009054906101000a900473ffffffffffffffffffffffffffffffffffffffff1673ffffffffffffffffffffffffffffffffffffffff1614611679576040517f08c379a000000000000000000000000000000000000000000000000000000000815260040161167090612dfd565b60405180910390fd5b3373ffffffffffffffffffffffffffffffffffffffff166003600083815260200190815260200160002060009054906101000a900473ffffffffffffffffffffffffffffffffffffffff1673ffffffffffffffffffffffffffffffffffffffff161461171a576040517f08c379a000000000000000000000000000000000000000000000000000000000815260040161171190612e8f565b60405180910390fd5b6000600283815481106117305761172f612eaf565b5b906000526020600020906002020160000154905060006002838154811061175a57611759612eaf565b5b9060005260206000209060020201600001549050600061177a83836107a5565b905060006001600280878154811061179557611794612eaf565b5b906000526020600020906002020160010160109054906101000a900461ffff16600289815481106117c9576117c8612eaf565b5b906000526020600020906002020160010160109054906101000a900461ffff166117f39190612ede565b6117fd9190612f16565b6118079190612ede565b61ffff16905061181a8686838533611d6a565b50505050505050565b6000600760008473ffffffffffffffffffffffffffffffffffffffff1673ffffffffffffffffffffffffffffffffffffffff16815260200190815260200160002060008373ffffffffffffffffffffffffffffffffffffffff1673ffffffffffffffffffffffffffffffffffffffff16815260200190815260200160002060009054906101000a900460ff16905092915050565b6118bf611f76565b600282815481106118d3576118d2612eaf565b5b90600052602060002090600202016040518060a0016040529081600082015481526020016001820160009054906101000a900467ffffffffffffffff1667ffffffffffffffff1667ffffffffffffffff1681526020016001820160089054906101000a900463ffffffff1663ffffffff1663ffffffff16815260200160018201600c9054906101000a900463ffffffff1663ffffffff1663ffffffff1681526020016001820160109054906101000a900461ffff1661ffff1661ffff16815250509050919050565b816006600083815260200190815260200160002060006101000a81548173ffffffffffffffffffffffffffffffffffffffff021916908373ffffffffffffffffffffffffffffffffffffffff1602179055505050565b600460008373ffffffffffffffffffffffffffffffffffffffff1673ffffffffffffffffffffffffffffffffffffffff1681526020019081526020016000206000815480929190611a4190612d42565b9190505550816003600083815260200190815260200160002060006101000a81548173ffffffffffffffffffffffffffffffffffffffff021916908373ffffffffffffffffffffffffffffffffffffffff160217905550600073ffffffffffffffffffffffffffffffffffffffff168373ffffffffffffffffffffffffffffffffffffffff1614611b5857600460008473ffffffffffffffffffffffffffffffffffffffff1673ffffffffffffffffffffffffffffffffffffffff1681526020019081526020016000206000815480929190611b1c90612f47565b91905055506006600082815260200190815260200160002060006101000a81549073ffffffffffffffffffffffffffffffffffffffff02191690555b808273ffffffffffffffffffffffffffffffffffffffff168473ffffffffffffffffffffffffffffffffffffffff167fddf252ad1be2c89b69c2b068fc378daa952ba7f163c4a11628f55a4df523b3ef60405160405180910390a4505050565b6000611bc384611f5d565b611bd05760019050611cca565b60008473ffffffffffffffffffffffffffffffffffffffff1663150b7a02338887876040518563ffffffff1660e01b8152600401611c119493929190612fc6565b602060405180830381600087803b158015611c2b57600080fd5b505af1158015611c3f573d6000803e3d6000fd5b505050506040513d601f19601f82011682018060405250810190611c639190613027565b90507f150b7a023d4804d13e8c85fb27262cb750cf6ba9f9dd3bb30d90f482ceeb4b1f7bffffffffffffffffffffffffffffffffffffffffffffffffffffffff1916817bffffffffffffffffffffffffffffffffffffffffffffffffffffffff1916149150505b949350505050565b80600760003373ffffffffffffffffffffffffffffffffffffffff1673ffffffffffffffffffffffffffffffffffffffff16815260200190815260200160002060008473ffffffffffffffffffffffffffffffffffffffff1673ffffffffffffffffffffffffffffffffffffffff16815260200190815260200160002060006101000a81548160ff0219169083151502179055505050565b6000806040518060a001604052808581526020014267ffffffffffffffff1681526020018863ffffffff1681526020018763ffffffff1681526020018661ffff16815250905060028190806001815401808255809150506001900390600052602060002090600202016000909190919091506000820151816000015560208201518160010160006101000a81548167ffffffffffffffff021916908367ffffffffffffffff16021790555060408201518160010160086101000a81548163ffffffff021916908363ffffffff160217905550606082015181600101600c6101000a81548163ffffffff021916908363ffffffff16021790555060808201518160010160106101000a81548161ffff021916908361ffff160217905550505060006001600280549050611e9c9190613054565b9050600560003373ffffffffffffffffffffffffffffffffffffffff1673ffffffffffffffffffffffffffffffffffffffff1681526020019081526020016000208190806001815401808255809150506001900390600052602060002001600090919091909150557f0a5311bd2a6608f08a180df2ee7c5946819a649b204b554bb8e39825b2c50ad584828a8a89604051611f3b959493929190613088565b60405180910390a1611f4f600085836119f1565b809250505095945050505050565b600080823b905060008163ffffffff1611915050919050565b6040518060a0016040528060008152602001600067ffffffffffffffff168152602001600063ffffffff168152602001600063ffffffff168152602001600061ffff1681525090565b6000604051905090565b600080fd5b600080fd5b60007fffffffff0000000000000000000000000000000000000000000000000000000082169050919050565b61200881611fd3565b811461201357600080fd5b50565b60008135905061202581611fff565b92915050565b60006020828403121561204157612040611fc9565b5b600061204f84828501612016565b91505092915050565b60008115159050919050565b61206d81612058565b82525050565b60006020820190506120886000830184612064565b92915050565b600081519050919050565b600082825260208201905092915050565b60005b838110156120c85780820151818401526020810190506120ad565b838111156120d7576000848401525b50505050565b6000601f19601f8301169050919050565b60006120f98261208e565b6121038185612099565b93506121138185602086016120aa565b61211c816120dd565b840191505092915050565b6000602082019050818103600083015261214181846120ee565b905092915050565b6000819050919050565b61215c81612149565b811461216757600080fd5b50565b60008135905061217981612153565b92915050565b60006020828403121561219557612194611fc9565b5b60006121a38482850161216a565b91505092915050565b600073ffffffffffffffffffffffffffffffffffffffff82169050919050565b60006121d7826121ac565b9050919050565b6121e7816121cc565b82525050565b600060208201905061220260008301846121de565b92915050565b612211816121cc565b811461221c57600080fd5b50565b60008135905061222e81612208565b92915050565b6000806040838503121561224b5761224a611fc9565b5b60006122598582860161221f565b925050602061226a8582860161216a565b9150509250929050565b6000806040838503121561228b5761228a611fc9565b5b60006122998582860161216a565b92505060206122aa8582860161216a565b9150509250929050565b6122bd81612149565b82525050565b60006020820190506122d860008301846122b4565b92915050565b6000806000606084860312156122f7576122f6611fc9565b5b60006123058682870161221f565b93505060206123168682870161221f565b92505060406123278682870161216a565b9150509250925092565b600080fd5b600080fd5b7f4e487b7100000000000000000000000000000000000000000000000000000000600052604160045260246000fd5b612373826120dd565b810181811067ffffffffffffffff821117156123925761239161233b565b5b80604052505050565b60006123a5611fbf565b90506123b1828261236a565b919050565b600067ffffffffffffffff8211156123d1576123d061233b565b5b6123da826120dd565b9050602081019050919050565b82818337600083830152505050565b6000612409612404846123b6565b61239b565b90508281526020810184848401111561242557612424612336565b5b6124308482856123e7565b509392505050565b600082601f83011261244d5761244c612331565b5b813561245d8482602086016123f6565b91505092915050565b600080600080608085870312156124805761247f611fc9565b5b600061248e8782880161221f565b945050602061249f8782880161221f565b93505060406124b08782880161216a565b925050606085013567ffffffffffffffff8111156124d1576124d0611fce565b5b6124dd87828801612438565b91505092959194509250565b6000602082840312156124ff576124fe611fc9565b5b600061250d8482850161221f565b91505092915050565b600081519050919050565b600082825260208201905092915050565b6000819050602082019050919050565b61254b81612149565b82525050565b600061255d8383612542565b60208301905092915050565b6000602082019050919050565b600061258182612516565b61258b8185612521565b935061259683612532565b8060005b838110156125c75781516125ae8882612551565b97506125b983612569565b92505060018101905061259a565b5085935050505092915050565b600060208201905081810360008301526125ee8184612576565b905092915050565b6125ff81612058565b811461260a57600080fd5b50565b60008135905061261c816125f6565b92915050565b6000806040838503121561263957612638611fc9565b5b60006126478582860161221f565b92505060206126588582860161260d565b9150509250929050565b600080fd5b600080fd5b60008083601f84011261268257612681612331565b5b8235905067ffffffffffffffff81111561269f5761269e612662565b5b6020830191508360018202830111156126bb576126ba612667565b5b9250929050565b6000806000806000608086880312156126de576126dd611fc9565b5b60006126ec8882890161221f565b95505060206126fd8882890161221f565b945050604061270e8882890161216a565b935050606086013567ffffffffffffffff81111561272f5761272e611fce565b5b61273b8882890161266c565b92509250509295509295909350565b6000806040838503121561276157612760611fc9565b5b600061276f8582860161221f565b92505060206127808582860161221f565b9150509250929050565b600067ffffffffffffffff82169050919050565b6127a78161278a565b82525050565b600063ffffffff82169050919050565b6127c6816127ad565b82525050565b600061ffff82169050919050565b6127e3816127cc565b82525050565b60a0820160008201516127ff6000850182612542565b506020820151612812602085018261279e565b50604082015161282560408501826127bd565b50606082015161283860608501826127bd565b50608082015161284b60808501826127da565b50505050565b600060a08201905061286660008301846127e9565b92915050565b7f546f6b656e20646f6573206e6f74206578697374000000000000000000000000600082015250565b60006128a2601483612099565b91506128ad8261286c565b602082019050919050565b600060208201905081810360008301526128d181612895565b9050919050565b7f4e656974686572206f776e6572206f6620746f6b656e206e6f7220617070726f60008201527f7665640000000000000000000000000000000000000000000000000000000000602082015250565b6000612934602383612099565b915061293f826128d8565b604082019050919050565b6000602082019050818103600083015261296381612927565b9050919050565b7f4e487b7100000000000000000000000000000000000000000000000000000000600052601260045260246000fd5b7f4e487b7100000000000000000000000000000000000000000000000000000000600052601160045260246000fd5b60006129d382612149565b91506129de83612149565b9250826129ee576129ed61296a565b5b828204905092915050565b6000612a0482612149565b9150612a0f83612149565b925082612a1f57612a1e61296a565b5b828206905092915050565b6000612a3582612149565b9150612a4083612149565b9250817fffffffffffffffffffffffffffffffffffffffffffffffffffffffffffffffff0483118215151615612a7957612a78612999565b5b828202905092915050565b6000612a8f82612149565b9150612a9a83612149565b9250827fffffffffffffffffffffffffffffffffffffffffffffffffffffffffffffffff03821115612acf57612ace612999565b5b828201905092915050565b7f6d73672e73656e646572206973206e6f74206f776e65722c206e6f722061707060008201527f726f7665642c206e6f72206f70657261746f7200000000000000000000000000602082015250565b6000612b36603383612099565b9150612b4182612ada565b604082019050919050565b60006020820190508181036000830152612b6581612b29565b9050919050565b7f5f66726f6d2061646472657373206973206e6f7420746865206f776e65720000600082015250565b6000612ba2601e83612099565b9150612bad82612b6c565b602082019050919050565b60006020820190508181036000830152612bd181612b95565b9050919050565b7f4f776e657220616e64206f70657261746f7220617265207468652073616d6500600082015250565b6000612c0e601f83612099565b9150612c1982612bd8565b602082019050919050565b60006020820190508181036000830152612c3d81612c01565b9050919050565b7f43616c6c6572206973206e6f74206f776e657200000000000000000000000000600082015250565b6000612c7a601383612099565b9150612c8582612c44565b602082019050919050565b60006020820190508181036000830152612ca981612c6d565b9050919050565b7f4d6178696d756d20616d6f756e74206f662047656e65726174696f6e2030206360008201527f6174732072656163686564000000000000000000000000000000000000000000602082015250565b6000612d0c602b83612099565b9150612d1782612cb0565b604082019050919050565b60006020820190508181036000830152612d3b81612cff565b9050919050565b6000612d4d82612149565b91507fffffffffffffffffffffffffffffffffffffffffffffffffffffffffffffffff821415612d8057612d7f612999565b5b600182019050919050565b7f4d756d2063617420646f6573206e6f742062656c6f6e6720746f206d73672e7360008201527f656e646572000000000000000000000000000000000000000000000000000000602082015250565b6000612de7602583612099565b9150612df282612d8b565b604082019050919050565b60006020820190508181036000830152612e1681612dda565b9050919050565b7f4461642063617420646f6573206e6f742062656c6f6e6720746f206d73672e7360008201527f656e646572000000000000000000000000000000000000000000000000000000602082015250565b6000612e79602583612099565b9150612e8482612e1d565b604082019050919050565b60006020820190508181036000830152612ea881612e6c565b9050919050565b7f4e487b7100000000000000000000000000000000000000000000000000000000600052603260045260246000fd5b6000612ee9826127cc565b9150612ef4836127cc565b92508261ffff03821115612f0b57612f0a612999565b5b828201905092915050565b6000612f21826127cc565b9150612f2c836127cc565b925082612f3c57612f3b61296a565b5b828204905092915050565b6000612f5282612149565b91506000821415612f6657612f65612999565b5b600182039050919050565b600081519050919050565b600082825260208201905092915050565b6000612f9882612f71565b612fa28185612f7c565b9350612fb28185602086016120aa565b612fbb816120dd565b840191505092915050565b6000608082019050612fdb60008301876121de565b612fe860208301866121de565b612ff560408301856122b4565b81810360608301526130078184612f8d565b905095945050505050565b60008151905061302181611fff565b92915050565b60006020828403121561303d5761303c611fc9565b5b600061304b84828501613012565b91505092915050565b600061305f82612149565b915061306a83612149565b92508282101561307d5761307c612999565b5b828203905092915050565b600060a08201905061309d60008301886121de565b6130aa60208301876122b4565b6130b760408301866122b4565b6130c460608301856122b4565b6130d160808301846122b4565b969550505050505056fea26469706673582212205a267d2740ad16356ecf21cd1ad44cbe0a13eff41c2058b5eb2586a109ee411864736f6c63430008090033",
  "immutableReferences": {},
  "source": "// SPDX-License-Identifier: UNLICENSED\r\npragma solidity ^0.8.9;\r\n\r\nimport \"./IERC721.sol\";\r\nimport \"./IERC721Receiver.sol\";\r\nimport \"./Ownable.sol\";\r\n\r\n//Contracts are considered abstract if at least ONE of their functions is not implemented\r\n\r\ncontract Kittycontract is IERC721, Ownable {\r\n\r\n    constructor() IERC721() {}\r\n\r\n    string public constant Name = \"HelloKitties\";\r\n    string public constant Symbol =\"HKTS\";\r\n    uint public constant MAX_AMOUNT_GEN0 = 1000;\r\n    uint gen0Counter;\r\n    bytes4 internal constant MAGIC_NUMBER = bytes4(keccak256(\"onERC721Received(address,address,uint256,bytes)\"));\r\n    bytes4 private constant INTERFACE_ID_721 = 0x80ac58cd;\r\n    bytes4 private constant INTERFACE_ID_165 = 0x01ffc9a7;\r\n\r\n    event Birth(address owner, uint256 kittenId, uint256 mumId, uint256 dadId, uint256 genes);\r\n\r\n    struct Token {\r\n        uint256 genes;\r\n        uint64 birthTime;\r\n        uint32 mumId;\r\n        uint32 dadId;\r\n        uint16 generation;\r\n    }\r\n    Token[] allTokens;\r\n\r\n    mapping(uint256 => address) ownership;\r\n    mapping(address => uint) tokenAmount;\r\n    mapping(address => uint[]) allTokensPerOwner;  //My own addition\r\n    mapping(uint => address) public approveToken;\r\n    mapping(address => mapping(address => bool)) private operatorApproval;\r\n    \r\n    function createKittyGen0(uint256 _genes) public onlyOwner returns(uint) {\r\n\r\n        require(gen0Counter < MAX_AMOUNT_GEN0, \"Maximum amount of Generation 0 cats reached\");\r\n        gen0Counter ++;\r\n\r\n        return _createKitty(0, 0, 0, _genes, msg.sender);\r\n    }\r\n\r\n    function _createKitty(\r\n        uint256 _mumId,\r\n        uint256 _dadId,\r\n        uint256 _generation,\r\n        uint256 _genes,\r\n        address _owner\r\n    ) private returns(uint256 tokenId) {\r\n\r\n        Token memory _newKitty = Token({\r\n            mumId: uint32(_mumId),\r\n            dadId: uint32(_dadId),\r\n            generation: uint16(_generation),\r\n            genes: _genes,\r\n            birthTime: uint64(block.timestamp)\r\n        });\r\n\r\n        allTokens.push(_newKitty);\r\n        uint256 newKittyId = allTokens.length - 1;\r\n        allTokensPerOwner[msg.sender].push(newKittyId);\r\n\r\n        emit Birth(_owner, newKittyId, _mumId, _dadId, _genes);\r\n\r\n        _transfer(address(0), _owner, newKittyId);\r\n\r\n        return newKittyId;\r\n    }\r\n\r\n    function getKitty(uint tokenId) public view returns(Token memory) {\r\n        return allTokens[tokenId];\r\n    }\r\n\r\n    function balanceOf(address owner) external view returns (uint256 balance) {\r\n        return tokenAmount[owner];\r\n    }\r\n\r\n    //My own addition\r\n    function allNFTsPerOwner(address user) public view returns (uint[] memory) {\r\n        return allTokensPerOwner[user];\r\n    }\r\n\r\n    function totalSupply() external view returns (uint256 total) {\r\n        return allTokens.length;\r\n    }\r\n\r\n    function name() external pure returns (string memory tokenName) {\r\n        return Name;\r\n    }\r\n\r\n    function symbol() external pure returns (string memory tokenSymbol) {\r\n        return Symbol;\r\n    }\r\n\r\n    function ownerOf(uint256 tokenId) external view returns (address owner) {\r\n        return ownership[tokenId];\r\n    }\r\n\r\n    function transfer(address to, uint256 tokenId) external {\r\n        require(to != address(0));\r\n        require(to != address(this));\r\n        require(ownership[tokenId] == msg.sender);\r\n        //require(_owns(msg.sender, tokenId));\r\n\r\n        _transfer(msg.sender, to, tokenId);\r\n    }\r\n\r\n    function _transfer(address _from, address _to, uint tokenId) internal {\r\n        tokenAmount[_to] ++;\r\n        ownership[tokenId] = _to;\r\n\r\n        if(_from != address(0)) {\r\n            tokenAmount[_from] --;\r\n            delete approveToken[tokenId];\r\n        }\r\n\r\n        emit Transfer(_from, _to, tokenId);\r\n    }\r\n\r\n    function approve(address _approved, uint256 _tokenId) external {\r\n        //require(owns(msg.sender, _tokenId), \"Not owner\");\r\n        require(ownership[_tokenId] == msg.sender || approveToken[_tokenId] == msg.sender, \"Neither owner of token nor approved\");\r\n        _approve(_approved, _tokenId);\r\n        emit Approval(msg.sender, _approved, _tokenId);\r\n    }\r\n\r\n    function _approve(address _approved, uint256 _tokenId) internal {\r\n        approveToken[_tokenId] = _approved;\r\n    }\r\n\r\n    function getApproved(uint256 _tokenId) external view returns (address) {\r\n        require(_tokenId < allTokens.length, \"Token does not exist\");\r\n        return approveToken[_tokenId];\r\n    }\r\n\r\n    function setApprovalForAll(address _operator, bool _approved) external {\r\n        require(msg.sender != _operator, \"Owner and operator are the same\");\r\n        _setApprovalForAll(_operator, _approved);\r\n        emit ApprovalForAll(msg.sender, _operator, _approved);\r\n    }\r\n\r\n    function _setApprovalForAll(address _operator, bool _approved) internal {\r\n        operatorApproval[msg.sender][_operator] = _approved;\r\n    }\r\n\r\n    function isApprovedForAll(address _owner, address _operator) external view returns (bool) {\r\n        return operatorApproval[_owner][_operator];\r\n    }\r\n\r\n    /*function owns(address claimant, uint tokenId) internal view returns(bool) {\r\n        return ownership[tokenId] == claimant;\r\n    }*/\r\n\r\n   \r\n    function transferFrom(address _from, address _to, uint256 _tokenId) external {\r\n\r\n        require(ownership[_tokenId] == msg.sender || approveToken[_tokenId] == msg.sender \r\n            || operatorApproval[_from][msg.sender] == true, \"msg.sender is not owner, nor approved, nor operator\");\r\n        require(ownership[_tokenId] == _from, \"_from address is not the owner\");\r\n        require(_tokenId < allTokens.length, \"Token does not exist\");\r\n        require(_to != address(0));\r\n\r\n        _transfer(_from, _to, _tokenId);\r\n    }\r\n\r\n    function safeTransferFrom(address _from, address _to, uint256 _tokenId) public {\r\n        require(ownership[_tokenId] == msg.sender || approveToken[_tokenId] == msg.sender \r\n            || operatorApproval[_from][msg.sender] == true, \"msg.sender is not owner, nor approved, nor operator\");\r\n        require(ownership[_tokenId] == _from, \"_from address is not the owner\");\r\n        require(_tokenId < allTokens.length, \"Token does not exist\");\r\n        require(_to != address(0));\r\n\r\n        _safeTransfer(_from, _to, _tokenId, \"\");   \r\n    }\r\n\r\n    function safeTransferFrom(address _from, address _to, uint256 _tokenId, bytes calldata _data) public {\r\n        //Can also put all these checks into a function that returns true (bool)\r\n        require(ownership[_tokenId] == msg.sender || approveToken[_tokenId] == msg.sender \r\n            || operatorApproval[_from][msg.sender] == true, \"msg.sender is not owner, nor approved, nor operator\");\r\n        require(ownership[_tokenId] == _from, \"_from address is not the owner\");\r\n        require(_tokenId < allTokens.length, \"Token does not exist\");\r\n        require(_to != address(0));\r\n\r\n        _safeTransfer(_from, _to, _tokenId, _data);\r\n    }\r\n\r\n    function _safeTransfer(address _from, address _to, uint _tokenId, bytes memory _data) public {\r\n        _transfer(_from, _to, _tokenId);\r\n        \r\n        require( _checkERC721Support(_from, _to, _tokenId, _data) );\r\n    }\r\n\r\n    function _checkERC721Support(address _from, address _to, uint _tokenId, bytes memory _data) internal returns (bool) {\r\n        //Check if _to is not a contract. If it isn't, then we're dealing with a wallet.\r\n        //The return value will be true and the transfer will go through.\r\n        if( !_isContract(_to) ) {\r\n            return true;\r\n        }\r\n\r\n        //Here we call the the onERC721Received() function in the contract/interface at address _to \r\n        bytes4 returnData = IERC721Receiver(_to).onERC721Received(msg.sender, _from, _tokenId, _data);\r\n        //And then we check the return value\r\n        return returnData == MAGIC_NUMBER;\r\n    }\r\n\r\n    function _isContract(address _to) view internal returns(bool) {\r\n        uint32 size;\r\n        assembly {\r\n            size := extcodesize(_to)    //external code size: checks the code size. \r\n        }                               //If code size = 0 -> wallet; if code size > 0 -> contract\r\n        return size > 0;                //If the size is > 0, then the return value will be true, which means we're dealing with a \r\n    }                                   //contract and the the if statement in _checkERC721Support will not be true\r\n \r\n    function supportsInterface(bytes4 _interfaceId) external pure returns(bool) {\r\n        return ( _interfaceId == INTERFACE_ID_721 || _interfaceId == INTERFACE_ID_165);\r\n    }\r\n\r\n    function breed(uint _mumId, uint _dadId) public {\r\n        //Check ownership of mum and dad\r\n        require(ownership[_mumId] == msg.sender, \"Mum cat does not belong to msg.sender\");\r\n        require(ownership[_dadId] == msg.sender, \"Dad cat does not belong to msg.sender\");\r\n\r\n        //You got the DNA\r\n        uint _mumDNA = allTokens[_mumId].genes;\r\n        uint _dadDNA = allTokens[_dadId].genes;\r\n        uint newDNA = _mixDNA(_mumDNA, _dadDNA);\r\n\r\n        //Figure out the generation of new cat\r\n        //I took the average of the parents and added one\r\n        uint newKittyGen = ((allTokens[_mumId].generation + allTokens[_dadId].generation) / 2) + 1;\r\n\r\n        //Create a new cat with the new properties, transfer it to the msg.sender\r\n        _createKitty(_mumId, _dadId, newKittyGen, newDNA, msg.sender);\r\n     \r\n    }\r\n\r\n    function _mixDNA(uint _mumDNA, uint _dadDNA) public pure returns(uint) {\r\n\r\n        //10 + 20 = 1020    this is what we want to achieve when we \"add\" the first and second half\r\n        //10 * 100 = 1000\r\n        //1000 + 20 = 1020\r\n\r\n        uint firstHalf = _dadDNA / 100000000;\r\n        uint secondHalf = _mumDNA % 100000000;\r\n        uint newDNA = firstHalf * 100000000 + secondHalf;\r\n        return newDNA;\r\n    }  \r\n}  \r\n\r\n",
  "sourcePath": "C:\\Users\\Emmerich\\Documents\\Academy\\HelloKitties\\MyHelloKitties\\contracts\\Kittycontract.sol",
  "compiler": {
    "name": "solc",
    "version": "0.8.9+commit.e5eed63a.Emscripten.clang"
  },
  "schemaVersion": "3.4.3",
  "updatedAt": "2021-12-11T17:22:27.106Z",
  "networkType": "ethereum",
  "devdoc": {
    "kind": "dev",
    "methods": {
      "approve(address,uint256)": {
        "details": "The zero address indicates there is no approved address.  Throws unless `msg.sender` is the current NFT owner, or an authorized  operator of the current owner.",
        "params": {
          "_approved": "The new approved NFT controller",
          "_tokenId": "The NFT to approve"
        }
      },
      "balanceOf(address)": {
        "details": "Returns the number of tokens in ``owner``'s account."
      },
      "getApproved(uint256)": {
        "details": "Throws if `_tokenId` is not a valid NFT.",
        "params": {
          "_tokenId": "The NFT to find the approved address for"
        },
        "returns": {
          "_0": "The approved address for this NFT, or the zero address if there is none"
        }
      },
      "isApprovedForAll(address,address)": {
        "params": {
          "_operator": "The address that acts on behalf of the owner",
          "_owner": "The address that owns the NFTs"
        },
        "returns": {
          "_0": "True if `_operator` is an approved operator for `_owner`, false otherwise"
        }
      },
      "ownerOf(uint256)": {
        "details": "Returns the owner of the `tokenId` token. Requirements: - `tokenId` must exist."
      },
      "setApprovalForAll(address,bool)": {
        "details": "Emits the ApprovalForAll event. The contract MUST allow  multiple operators per owner.",
        "params": {
          "_approved": "True if the operator is approved, false to revoke approval",
          "_operator": "Address to add to the set of authorized operators"
        }
      },
      "transferFrom(address,address,uint256)": {
        "details": "Throws unless `msg.sender` is the current owner, an authorized  operator, or the approved address for this NFT. Throws if `_from` is  not the current owner. Throws if `_to` is the zero address. Throws if  `_tokenId` is not a valid NFT.",
        "params": {
          "_from": "The current owner of the NFT",
          "_to": "The new owner",
          "_tokenId": "The NFT to transfer"
        }
      }
    },
    "version": 1
  },
  "userdoc": {
    "kind": "user",
    "methods": {
      "approve(address,uint256)": {
        "notice": "Change or reaffirm the approved address for an NFT"
      },
      "getApproved(uint256)": {
        "notice": "Get the approved address for a single NFT"
      },
      "isApprovedForAll(address,address)": {
        "notice": "Query if an address is an authorized operator for another address"
      },
      "setApprovalForAll(address,bool)": {
        "notice": "Enable or disable approval for a third party (\"operator\") to manage  all of `msg.sender`'s assets"
      },
      "transferFrom(address,address,uint256)": {
        "notice": "Transfer ownership of an NFT -- THE CALLER IS RESPONSIBLE  TO CONFIRM THAT `_to` IS CAPABLE OF RECEIVING NFTS OR ELSE  THEY MAY BE PERMANENTLY LOST"
      }
    },
    "version": 1
  }
}